:100000000C9464000C947D090C94AA090C948C0047
:100010000C948C000C948C000C948C000C948C0030
:100020000C948C000C948C000C948C000C949A070B
:100030000C948C000C948C000C948C000C948C0010
:100040000C9458080C948C000C94BE0A0C940C0B65
:100050000C948C000C948C000C948C000C948C00F0
:100060000C948C000C948C000000000024002700ED
:100070002A0000000000250028002B0000000000DE
:1000800023002600290004040404040404040202DA
:100090000202020203030303030301020408102007
:1000A0004080010204081020010204081020000012
:1000B0000007000201000003040600000000000029
:1000C0000000D100780CCA0011241FBECFEFD4E08D
:1000D000DEBFCDBF12E0A0E0B1E0EEE2FBE202C085
:1000E00005900D92A234B107D9F713E0A2E4B2E073
:1000F00001C01D92A734B107E1F710E0C6ECD0E0D3
:1001000004C02297FE010E948615C23CD107C9F7A0
:100110000E94B1100C948A150C940000FB01DC01C4
:1001200002C001900D9241505040D8F70895FB0154
:10013000DC018D91019080190110D9F3990B08957C
:10014000FB01DC0101900D920020E1F70895813060
:100150009105B1F46F5F7F4FE1F484E592E060E0D8
:1001600071E00E9478108BE592E00E9456068EE5C1
:1001700092E00E94560681E692E00E94560608959B
:10018000892B39F46F5F7F4F21F484E592E00E9460
:10019000AB10089580E090E06FEF7FEF0E94A70022
:1001A000089581E090E06FEF7FEF0E94A70008952F
:1001B0000E94A00820914F023091500240915102BC
:1001C00050915202621B730B840B950B60527E445C
:1001D0008040904094F0109243021092420210929C
:1001E0004502109244020E94A00860934F0270934F
:1001F00050028093510290935202089560914402FC
:10020000709145026F5F7F4F709345026093440287
:1002100080914802882331F081E293E04AE050E087
:100220000E94EF0D80914402909145028134910526
:1002300024F0109245021092440208950E94A008F2
:1002400020914B0230914C0240914D0250914E0250
:10025000621B730B840B950B4091290250912A026B
:1002600028EE33E0F9014E9F90014F9F300D5E9FC5
:10027000300D1124442737FD4095542F6217730722
:100280008407950764F00E94FE000E94A008609316
:100290004B0270934C0280934D0290934E0208954E
:1002A00080912602909127020FC081E692E00E9481
:1002B000AC066FE070E080E090E00E94C60880919C
:1002C00064029091650201979093650280936402A5
:1002D00060916402709165026E32710534F7089581
:1002E00080912402909125021BC08BE592E00E9430
:1002F000AC0660916402709165028EE592E00E9406
:10030000AC066FE070E080E090E00E94C60880914B
:1003100064029091650290932502809324020197D4
:10032000909365028093640260916402709165020B
:100330006A317105D4F60E94500181E293E061E0D8
:1003400071E00E94F80E08958BE592E06AE170E09A
:100350000E94AC068EE592E06AE170E00E94AC0675
:1003600081E293E061E071E00E94F80E0895EF925F
:10037000FF920F931F93CF93DF93EB012091240201
:100380003091250230936502209364027C0100279E
:10039000F7FC0095102F1DC08BE592E00E94AC0683
:1003A00060916402709165028EE592E00E94AC0655
:1003B000C801B7010E94C60880916402909165024D
:1003C0009093250280932402019690936502809376
:1003D000640260916402709165026C177D07E4F21B
:1003E00081E293E061E071E00E94F80EDF91CF912D
:1003F0001F910F91FF90EF90089584E060E00E94BC
:10040000160A86E060E00E94160A08950F931F9373
:100410008C0184E060E00E94160A86E061E00E94A0
:10042000160A109245021092440210161106CCF0E2
:100430000E94FD018091420290914302209144026A
:1004400030914502821B930B9093430280934202AA
:1004500081E293E061E071E00E94F80E1F910F913C
:100460000895FFCFCF93DF93EC0184E061E00E9419
:10047000160A86E060E00E94160A06C061E070E09D
:1004800080E090E00E94C60880914402909145026D
:100490008C179D079CF30E94FD0180914202909170
:1004A00043022091440230914502820F931F9093A2
:1004B00043028093420281E293E061E071E00E9496
:1004C000F80EDF91CF9108950F931F938C01F8944C
:1004D00085E060E00E94160A87E0602F0E94160AFD
:1004E00081E293E061E071E00E94F80E1092460212
:1004F000012B19F081E08093460264EF71E080E007
:1005000090E00E94C60878941F910F910895F89486
:1005100080E090E00E9464028EE061E00E94160A92
:1005200068EE73E080E090E00E94C6088EE060E034
:100530000E94160A81E293E061E071E00E94F80EE9
:1005400064EF71E080E090E00E94C608789408951E
:100550000E94500182E390E068E270E00E94B701DF
:1005600068EE73E080E090E00E94C608609124028B
:1005700070912502615F7F4F8BE592E00E94AC068F
:1005800060ED77E080E090E00E94C6080E9487025C
:10059000089510924502109244020E94700180E476
:1005A00090E0909343028093420280914802882316
:1005B00079F081E293E064E071E00E94F80E08C0F7
:1005C00084E060E00E94160A86E061E00E94160A5C
:1005D0008091420290914302181619068CF30E94F2
:1005E000FD0181E293E061E071E00E94F80E089560
:1005F0000F931F9301E213E0C8016BE071E00E94CA
:100600000E0E6091420270914302C8014AE050E030
:100610000E94EF0DC8016FE171E00E940E0E609123
:100620004602C80170E04AE050E00E94EF0DC801A8
:1006300066E271E00E940E0E60914702C80170E010
:100640004AE050E00E94EF0DC8016DE271E00E94A7
:100650000E0E6091240270912502C8014AE050E01C
:100660000E94EF0DC80169E371E00E940E0E6091D7
:10067000260270912702C8014AE050E00E94EF0D67
:10068000C80167E471E00E940E0E60914802C80143
:1006900070E04AE050E00E94EF0D1F910F91089525
:1006A0002F923F924F925F926F927F928F929F9282
:1006B000AF92BF92CF92DF92EF92FF920F931F9370
:1006C000CF93DF93EB0120912402309125023093E8
:1006D000650220936402A9E62A2E312C412C512C6C
:1006E0003C01882477FC8094982C82C000D000D0F4
:1006F000B901882777FD8095982FEDB7FEB7218245
:100700003282438254822AE130E040E050E0F6E950
:10071000EF2EF12C012D112DE4E6AE2EB12CC12CC3
:10072000D12C0E94520F70932702609326020F90E3
:100730000F900F900F9060916402709165028BE5AD
:1007400092E00E94AC0660916402709165028EE5B1
:1007500092E00E94AC06609126027091270281E629
:1007600092E00E94AC06C401B3010E94C6088091C9
:10077000640290916502909325028093240280E1A7
:100780000E946A0A892B59F5209749F162E370E0CB
:1007900080E090E00E94C60880E10E946A0A892BEE
:1007A000F1F460916402709165026B5F7F4F8BE59D
:1007B00092E00E94AC0660916402709165026B5FEA
:1007C0007F4F8EE592E00E94AC068091640290918A
:1007D00065020596909325028093240211C08091B2
:1007E0006402909165020196909365028093640281
:1007F00020916402309165022B3431050CF476CFE0
:1008000081E293E061E071E00E94F80EDF91CF9108
:100810001F910F91FF90EF90DF90CF90BF90AF901E
:100820009F908F907F906F905F904F903F902F9010
:100830000895EF92FF920F931F937C0101E213E062
:10084000C8016FE471E00E940E0EC801B7010E945A
:100850003E0F1F910F91FF90EF9008950F931F93FC
:10086000DF93CF93CDB7DEB727970FB6F894DEBFEF
:100870000FBECDBF0E94C90264EF71E080E090E03E
:100880000E94C60882E390E061E070E00E9450039D
:1008900081E090E00E94640260ED77E080E090E00B
:1008A0000E94C6080E94700164EF71E080E090E051
:1008B0000E94C60880E10E946A0A019731F562E34E
:1008C00070E080E090E00E94C60880E10E946A0A21
:1008D0000197D9F40E942E048091490290914A0216
:1008E000019690934A0280934902069774F08E0114
:1008F0000F5F1F4FC80167E571E00E947810C801C3
:100900000E941904C8010E94AB1027960FB6F894F4
:10091000DEBF0FBECDBFCF91DF911F910F91089524
:1009200080E10E946A0A019769F462E370E080E066
:1009300090E00E94C60880E10E946A0A019711F4C3
:100940000E942E048CE190E00E94320264EF71E07C
:1009500080E090E00E94C60808950F931F9301E283
:1009600013E0C8016FE571E00E940E0EC8014DEC66
:100970005CEC6CEC7DE322E030E00E94F50EC801F7
:1009800068E671E00E940E0E1F910F9108951F936B
:1009900011E01AC181E293E00E94FF0B682F80935F
:1009A000530280912802882321F081E293E00E9483
:1009B000F80C609153026D3009F002C18091280259
:1009C000882321F081E293E00E94000D84E592E00B
:1009D0006BE671E00E94AC0F882319F00E94700151
:1009E000E2C084E592E06EE671E00E94AC0F8823DD
:1009F00029F082E390E060E070E079C084E592E065
:100A000064E771E00E94AC0F882339F082E390E044
:100A10006BE470E00E94B701C6C084E592E069E72C
:100A200071E00E94AC0F882319F081E090E00AC0C9
:100A300084E592E061E871E00E94AC0F882329F020
:100A400080E090E00E946402AEC084E592E06AE833
:100A500071E00E94AC0F882319F00E948702A3C0A6
:100A600084E592E06FE871E00E94AC0F882329F0E2
:100A700080E190E00E94060296C084E592E064E97D
:100A800071E00E94AC0F882329F08CE190E00E9475
:100A9000320289C084E592E06AE971E00E94AC0FFD
:100AA000882319F00E94FD017EC084E592E06FE981
:100AB00071E00E94AC0F882319F00E94C90273C034
:100AC00084E592E064EA71E00E94AC0F882319F09B
:100AD0000E94F80268C084E592E06BEA71E00E942F
:100AE000AC0F882339F082E390E061E070E00E946F
:100AF000500359C084E592E064EB71E00E94AC0FB2
:100B0000882319F00E942E044EC084E592E06DEB1C
:100B100071E00E94AC0F882319F00E94900443C03A
:100B200084E592E067EC71E00E94AC0F882319F035
:100B30000E94A80238C084E592E062ED71E00E9454
:100B4000AC0F882319F0109348022DC084E592E081
:100B50006BED71E00E94AC0F882319F010924802EF
:100B600022C084E592E065EE71E00E94AC0F88231C
:100B700019F01093280217C084E592E06DEE71E041
:100B80000E94AC0F882319F0109228020CC081E259
:100B900093E066EF71E00E940E0E81E293E064E55F
:100BA00072E00E943E0F84E592E060E071E00E94F6
:100BB000921080912802882339F00E94AD0404C06D
:100BC00084E592E00E94321081E293E00E94CE0B15
:100BD000892B09F0DFCE1F9108958BE592E069E043
:100BE00070E00E9493078EE592E06AE070E00E9458
:100BF000930781E692E06BE070E00E94930784E047
:100C000061E00E94D70986E061E00E94D70985E093
:100C100061E00E94D70987E061E00E94D7098EE079
:100C200061E00E94D70982E060E00E94D70983E07A
:100C300060E00E94D70980E160E00E94D70983E06C
:100C400061E00E94160A80E161E00E94160A80E0DD
:100C50006EE171E041E050E00E945A0981E068EDE8
:100C600070E042E050E00E945A0981E293E040E8DF
:100C700055E260E070E00E94470B81E293E06FE094
:100C800072E00E94F80E0E9450010E94A40164EFDD
:100C900071E080E090E00E94C6080E94C902809145
:100CA0002802882311F00E94AD040895FC01809170
:100CB00066028C3090F480838F5F8093660281504F
:100CC00090E0FC01EE0FFF1FE80FF91FE959FD4FFF
:100CD00088EB9BE09283818308958FEF8083089552
:100CE000FC0120812C30B8F58181992787FD9095F2
:100CF00048E850E0481B590B440F551F440F551F3F
:100D00006417750784F08281992787FD909548E5DF
:100D100052E0481B590B440F551F440F551F6417D1
:100D200075070CF4AB0142505040CA01AA2797FD49
:100D3000A095BA2F880F991FAA1FBB1F4FB7F89411
:100D400030E0F901EE0FFF1FE20FF31FE959FD4FED
:100D5000928381834FBF0895AF92BF92CF92DF926B
:100D6000EF92FF920F931F93CF93DF93EC019B01C0
:100D700082E0603278070CF048C077FF03C020E0C3
:100D800030E005C0653B710514F024EB30E000D085
:100D900000D0B901882777FD8095982F29813327C6
:100DA00027FD3095E8E8AE2EB12CA21AB30AAA0CA2
:100DB000BB1CAA0CBB1CCC24B7FCC094DC2CEA8165
:100DC000FF27E7FDF09528E532E02E1B3F0B220FB1
:100DD000331F220F331F442737FD4095542FEDB7A3
:100DE000FEB7218332834383548320E030E040E028
:100DF00050E004EBE02EF12C012D112D0E94520F3A
:100E00009B010F900F900F900F90CE01B9010E949F
:100E10007006DF91CF911F910F91FF90EF90DF90BF
:100E2000CF90BF90AF900895CF92DF92EF92FF9254
:100E30001F93CF93DF93EC01162F7A01690188810C
:100E40008C3008F064C0862F61E00E94D709888149
:100E500090E0FC01EE0FFF1FE80FF91FE959FD4F6D
:100E60001F738081807C812B808380E292E08E19C9
:100E70009F0964E070E00E942015698380E699E094
:100E80008C199D0964E070E00E9420156A83A88196
:100E90008A2F6CE00E941415682F70E0AB01440F9C
:100EA000551F460F571F440F551F440F551F20E075
:100EB00030E0C901840F951FFC01EE0FFF1FE80F02
:100EC000F91FE959FD4F808186FD15C02F5F3F4F07
:100ED0002C30310571F724C01092800082E080939D
:100EE00081001092850010928400B19A80916F0069
:100EF000826080936F008A2F90E0FC01EE0FFF1F4D
:100F0000E80FF91FE959FD4F808180648083888153
:100F1000DF91CF911F91FF90EF90DF90CF900895D8
:100F2000672BD1F2E8CF40E252E020E639E00E94A0
:100F3000140708951F920F920FB60F9211242F934A
:100F40003F934F935F936F937F938F939F93AF9351
:100F5000BF93EF93FF9380918B0287FF05C01092A0
:100F60008500109284002BC020918B02332727FD2F
:100F700030958091660290E02817390704F580913A
:100F80008B02992787FD9095FC01EE0FFF1FE80F5C
:100F9000F91FE959FD4F808186FF11C080918B02B6
:100FA000992787FD9095FC01EE0FFF1FE80FF91FB1
:100FB000E959FD4F80818F7360E00E94160A80918D
:100FC0008B028F5F80938B0220918B02332727FD4A
:100FD00030958091660290E0281739070CF04EC0DA
:100FE00080918B028C300CF049C0209184003091AC
:100FF000850080918B02992787FD9095FC01EE0F6B
:10100000FF1FE80FF91FE959FD4F81819281280FD9
:10101000391F309389002093880080918B02992793
:1010200087FD9095FC01EE0FFF1FE80FF91FE959AE
:10103000FD4F808186FF2BC080918B02992787FD11
:101040009095FC01EE0FFF1FE80FF91FE959FD4FC6
:1010500080818F7361E00E94160A19C080E49CE9C8
:1010600005C080918400909185000496909389003A
:10107000809388008FEF80938B0209C08091840059
:1010800090918500049680549C4940F3EACFFF91EB
:10109000EF91BF91AF919F918F917F916F915F91F0
:1010A0004F913F912F910F900FBE0F901F90189569
:1010B0001F920F920FB60F9211242F933F938F938D
:1010C0009F93AF93BF938091900290919102A091D2
:1010D0009202B0919302309194020196A11DB11D2C
:1010E000232F2D5F2D3720F02D570196A11DB11D07
:1010F000209394028093900290939102A093920285
:10110000B093930280918C0290918D02A0918E02F7
:10111000B0918F020196A11DB11D80938C02909316
:101120008D02A0938E02B0938F02BF91AF919F91D9
:101130008F913F912F910F900FBE0F901F90189598
:101140009FB7F89420918C0230918D0240918E02CD
:1011500050918F0286B5A89B06C08F3F21F02F5F6C
:101160003F4F4F4F5F4F9FBF542F432F322F2227A8
:10117000280F311D411D511D82E0220F331F441FD6
:10118000551F8A95D1F7B901CA0108959B01AC0199
:101190007FB7F89480918C0290918D02A0918E027D
:1011A000B0918F0266B5A89B05C06F3F19F00196FC
:1011B000A11DB11D7FBFBA2FA92F982F8827860F99
:1011C000911DA11DB11D62E0880F991FAA1FBB1FB1
:1011D0006A95D1F7BC012DC0FFB7F89480918C02BD
:1011E00090918D02A0918E02B0918F02E6B5A89BDE
:1011F00005C0EF3F19F00196A11DB11DFFBFBA2F29
:10120000A92F982F88278E0F911DA11DB11DE2E0F7
:10121000880F991FAA1FBB1FEA95D1F7861B970B52
:10122000885E9340C8F221503040404050406851A1
:101230007C4F211531054105510571F608957894CB
:1012400084B5826084BD84B5816084BD85B58260CB
:1012500085BD85B5816085BDEEE6F0E08081816069
:101260008083E1E8F0E01082808182608083808169
:1012700081608083E0E8F0E0808181608083E1EB41
:10128000F0E0808184608083E0EBF0E08081816029
:101290008083EAE7F0E080818460808380818260DF
:1012A00080838081816080838081806880831092C8
:1012B000C1000895823000F5E82FF0E0EE0FFF1F27
:1012C000EB56FD4F71836083882319F08130A1F4C0
:1012D00008C0809169008C7F842B80936900E89A14
:1012E000089580916900440F551F440F551F837F57
:1012F000842B80936900E99A08951F920F920FB68C
:101300000F9211242F933F934F935F936F937F938B
:101310008F939F93AF93BF93EF93FF938091950229
:1013200090919602892B29F0E0919502F091960216
:101330000995FF91EF91BF91AF919F918F917F910F
:101340006F915F914F913F912F910F900FBE0F9032
:101350001F9018951F920F920FB60F9211242F9382
:101360003F934F935F936F937F938F939F93AF932D
:10137000BF93EF93FF938091970290919802892BEE
:1013800029F0E0919702F09198020995FF91EF9171
:10139000BF91AF919F918F917F916F915F914F918D
:1013A0003F912F910F900FBE0F901F901895CF93E4
:1013B000DF93482F50E0CA0186569F4FFC013491BD
:1013C0004A575F4FFA018491882369F190E0880FB2
:1013D000991FFC01E859FF4FA591B491FC01EE580B
:1013E000FF4FC591D491662351F42FB7F8948C9197
:1013F000932F909589238C93888189230BC0623029
:1014000061F42FB7F8948C91932F909589238C9346
:101410008881832B88832FBF06C09FB7F8948C9157
:10142000832B8C939FBFDF91CF910895482F50E07D
:10143000CA0182559F4FFC012491CA0186569F4FD5
:10144000FC0194914A575F4FFA013491332309F418
:1014500040C0222351F1233071F0243028F4213090
:10146000A1F0223011F514C02630B1F02730C1F0C0
:101470002430D9F404C0809180008F7703C080911C
:1014800080008F7D8093800010C084B58F7702C06C
:1014900084B58F7D84BD09C08091B0008F7703C073
:1014A0008091B0008F7D8093B000E32FF0E0EE0FCD
:1014B000FF1FEE58FF4FA591B4912FB7F894662304
:1014C00021F48C919095892302C08C91892B8C9367
:1014D0002FBF0895682F70E0CB0182559F4FFC010C
:1014E0002491CB0186569F4FFC0144916A577F4F50
:1014F000FB019491992319F420E030E03CC02223B1
:1015000051F1233071F0243028F42130A1F0223041
:1015100011F514C02630B1F02730C1F02430D9F4D1
:1015200004C0809180008F7703C0809180008F7D00
:101530008093800010C084B58F7702C084B58F7D02
:1015400084BD09C08091B0008F7703C08091B00046
:101550008F7D8093B000892F90E0880F991F845869
:101560009F4FFC01A591B4918C9120E030E0842341
:1015700011F021E030E0C901089508951F920F9203
:101580000FB60F9211242F933F934F938F939F93F6
:10159000EF93FF938091C00082FD1DC04091C60073
:1015A0002091D9023091DA022F5F3F4F2F733070B4
:1015B0008091DB029091DC022817390771F0E091ED
:1015C000D902F091DA02E756FD4F40833093DA02F8
:1015D0002093D90202C08091C600FF91EF919F91A4
:1015E0008F914F913F912F910F900FBE0F901F90B1
:1015F0001895E0912D03F0912E03E05CFF4F81914F
:10160000919120813181821B930B8F739070892B74
:1016100011F00E94BD0A08951F920F920FB60F920B
:1016200011242F933F938F939F93EF93FF932091D8
:101630001D0330911E0380911F03909120032817F2
:10164000390731F48091C1008F7D8093C10014C0AF
:10165000E0911F03F0912003E352FD4F2081809120
:101660001F039091200301968F7390709093200335
:1016700080931F032093C600FF91EF919F918F915C
:101680003F912F910F900FBE0F901F901895AF9222
:10169000BF92DF92EF92FF920F931F93CF93DF934E
:1016A000EC017A018B01DD24403081EE580780E0A7
:1016B000680780E0780711F0DD24D39491E0A92E2B
:1016C000B12CEC89FD89DD2069F0C50108A002C0BC
:1016D000880F991F0A94E2F7808360E079E08DE338
:1016E00090E005C0108260E874E88EE190E0A80107
:1016F00097010E943315215030404040504056958C
:1017000047953795279580E12030380720F0DD2078
:1017100011F0DD24D6CFE889F9893083EA89FB8985
:10172000208319A2EE89FF89408121E030E0C901C0
:101730000C8C02C0880F991F0A94E2F7482B408353
:10174000EE89FF894081C9010D8C02C0880F991F65
:101750000A94E2F7482B4083EE89FF894081C90152
:101760000E8C02C0880F991F0A94E2F7482B408321
:10177000EE89FF8980810F8C02C0220F331F0A94EB
:10178000E2F7209528232083DF91CF911F910F91BD
:10179000FF90EF90DF90BF90AF900895DC011C9612
:1017A000ED91FC911D97E05CFF4F2191319180817B
:1017B0009181281B390B2F733070C9010895DC010A
:1017C0001C96ED91FC911D97E05CFF4F20813181CB
:1017D000E054F040DF01AE5BBF4F8D919C911197BB
:1017E0002817390719F42FEF3FEF07C08D919C910F
:1017F000E80FF91F8081282F30E0C9010895DC012E
:101800001C96ED91FC911D97E05CFF4F208131818A
:10181000E054F040DF01AE5BBF4F8D919C9111977A
:101820002817390719F42FEF3FEF10C08D919C91C5
:101830001197E80FF91F20818D919C9111970196C6
:101840008F73907011969C938E9330E0C901089528
:10185000DC0191968C919197882339F05496ED9103
:10186000FC915597808186FFF9CF91961C9208953F
:10187000CF93DF93EC01EE85FF85E05CFF4F208185
:101880003181E054F0402F5F3F4F2F733070DF0104
:10189000AE5BBF4F8D919C91119728173907D1F3FB
:1018A000E05CFF4F80819181E054F040E80FF91F28
:1018B0006083EE85FF85E05CFF4F31832083EE89F6
:1018C000FF89208181E090E00F8C02C0880F991F72
:1018D0000A94E2F7282B208381E089A3EC89FD8913
:1018E00080818064808381E090E0DF91CF910895D2
:1018F000109224031092230388EE93E0A0E0B0E05E
:101900008093250390932603A0932703B093280385
:1019100085E392E0909322038093210389E992E08A
:1019200090932E0380932D038DED92E090933003DE
:1019300080932F0385EC90E09093320380933103E2
:1019400084EC90E0909334038093330380EC90E038
:10195000909336038093350381EC90E090933803A5
:101960008093370382EC90E090933A03809339039D
:1019700086EC90E090933C0380933B0384E080935B
:101980003D0383E080933E0387E080933F0385E03F
:101990008093400381E0809341030895CF92DF92CA
:1019A000EF92FF920F931F93CF93DF937C016B0114
:1019B0008A01C0E0D0E00FC0D6016D916D01D70162
:1019C000ED91FC910190F081E02DC7010995C80FC0
:1019D000D91F015010400115110571F7CE01DF919B
:1019E000CF911F910F91FF90EF90DF90CF900895CE
:1019F000DC01ED91FC910190F081E02D09950895B5
:101A0000EF92FF920F931F938C01DC01ED91FC91FB
:101A10000190F081E02D6DE009957C01D801ED91F8
:101A2000FC910190F081E02DC8016AE009959C01CC
:101A30002E0D3F1DC9011F910F91FF90EF9008954A
:101A4000CF93DF93EC016115710519F420E030E0CC
:101A50000FC0DB010D900020E9F71197A61BB70B13
:101A6000E881F9810280F381E02DAD0109959C01A7
:101A7000C901DF91CF9108954F925F927F928F922B
:101A80009F92AF92BF92CF92DF92EF92FF920F930D
:101A90001F93DF93CF93CDB7DEB7A1970FB6F8941E
:101AA000DEBF0FBECDBF2C01742ECB01223008F457
:101AB0002AE019A231E2C32ED12CCC0EDD1E822EDB
:101AC0009924AA24BB24672D752FA50194010E9497
:101AD000331579018A01C801B701A50194010E945B
:101AE000F514472D461B0894C108D1084A3014F458
:101AF000405D01C0495CF6014083E114F104010539
:101B0000110521F07E2C5F2DC801DDCFC201B60189
:101B10000E94200DA1960FB6F894DEBF0FBECDBF78
:101B2000CF91DF911F910F91FF90EF90DF90CF90B9
:101B3000BF90AF909F908F907F905F904F9008954F
:101B4000DC012115310541F4ED91FC910190F0810A
:101B5000E02D642F099508950E943C0D0895CF92C1
:101B6000DF92EF92FF920F931F93CF93DF93EC01DD
:101B70006A017B012115310541F4E881F981019069
:101B8000F081E02D642F09951FC02A303105D1F472
:101B900077FF17C0E881F9810190F081E02D6DE2B7
:101BA00009958C0144275527BA014C195D096E0926
:101BB0007F09CE012AE00E943C0D9801280F391FB1
:101BC00004C02AE00E943C0D9C01C901DF91CF9125
:101BD0001F910F91FF90EF90DF90CF900895CF92DB
:101BE000DF92EF92FF920F931F936C017B019A019A
:101BF0000027F7FC0095102FB801A7010E94AF0D38
:101C00008C01C6010E94000D080F191FC8011F9109
:101C10000F91FF90EF90DF90CF9008950E94200DDC
:101C200008957F928F929F92AF92BF92CF92DF9250
:101C3000EF92FF920F931F93CF93DF934C017A01A2
:101C40008B01722ECB01BA01A80197010E94F114F9
:101C5000882321F0C40166E172E021C0C0E0D0E039
:101C600057016801E894D7F8C601B5012FEF3FEF9F
:101C70004FE75FE70E94F114882351F4C601B501D4
:101C80002FEF3FEF4FE75FE70E943B13181614F06A
:101C9000C1E0D0E0219739F0C4016AE172E00E940E
:101CA000200DEC0193C0C801B7012FEF3FEF4FE7C4
:101CB0005FE40E948A14181654F0C801B7012FEF90
:101CC0003FEF4FE75FEC0E943B13882324F4C401ED
:101CD0006EE172E0E4CFC801B70120E030E040E0FF
:101CE00050E00E943B1387FD03C0C0E0D0E00EC06F
:101CF000D401ED91FC910190F081E02DC4016DE2E1
:101D00000995EC0117FB109517F9109520E030E0CC
:101D100040E05FE3DD240BC0CA01B90120E030E000
:101D200040E251E40E943F139B01AC01D394D714CD
:101D300098F3C801B7010E94D7125B016C010E94A1
:101D4000AC137B018C01C401B801A7012AE030E08B
:101D50000E94A00DC80FD91F772039F0C40162E29C
:101D600072E00E94200DC80FD91FC801B7010E9460
:101D7000D8139B01AC01C601B5010E94D61224C044
:101D800020E030E040E251E40E948E147B018C019F
:101D90000E94A7135B016C01CC24B7FCC094DC2C1F
:101DA000C401B601A5012AE030E00E94AF0DC80FC2
:101DB000D91FC601B5010E94DA139B01AC01C8010D
:101DC000B7010E94D6127A947720D1F6CE01DF9126
:101DD000CF911F910F91FF90EF90DF90CF90BF9028
:101DE000AF909F908F907F9008950E94110E08955C
:101DF000EF92FF920F931F937C010E94200D8C01A4
:101E0000C7010E94000D080F191FC8011F910F91F3
:101E1000FF90EF900895AF92BF92CF92DF92EF9232
:101E2000FF920F931F93CF93DF935C016B01EE241E
:101E3000FF24C0E0D0E010C0D501ED91FC910081FD
:101E40001181C601BE010E949B0F682FC501F801D8
:101E50000995E80EF91E2196F60184819581C8172F
:101E6000D90750F3C701DF91CF911F910F91FF90D8
:101E7000EF90DF90CF90BF90AF900895EF92FF92D8
:101E80000F931F937C010E940B0F8C01C7010E94CE
:101E9000000D9C01200F311FC9011F910F91FF9070
:101EA000EF9008952F923F924F925F926F927F92A0
:101EB0008F929F92AF92BF92CF92DF92EF92FF925A
:101EC0000F931F93DF93CF93CDB7DEB73B014C0148
:101ED00019012A016D897E898F89988D6A197B097C
:101EE0008C099D09621A730A840A950AA401930158
:101EF0000E94F514E218F30804091509A8019701D6
:101F00000E9455152A0D3B1D4C1D5D1DB901CA01CE
:101F1000CF91DF911F910F91FF90EF90DF90CF90C5
:101F2000BF90AF909F908F907F906F905F904F90F9
:101F30003F902F900895FC0184819581681779075F
:101F400048F40190F081E02D309721F0E60FF71F63
:101F50008081089580E00895DC01FB0114968D9145
:101F60009C911597892B31F461157105A9F090E0CA
:101F7000808108C00D90BC91A02D6115710529F4D8
:101F800090E08C91882349F407C0CD010E9497000E
:101F90009C0190E0232B09F491E0892F08950F9381
:101FA0001F93CF93DF93EC018B016F5F7F4F88818D
:101FB00099810E94C010009711F480E005C09983B8
:101FC00088831B830A8381E0DF91CF911F910F915A
:101FD0000895CF93DF93EC0188819981892B29F0B3
:101FE0008A819B818617970760F4CE010E94CF0FEC
:101FF000882341F08C819D81892B19F4E881F98136
:10200000108281E0DF91CF910895EF92FF920F93BC
:102010001F93CF93DF93EC017B016C817D81E114F1
:10202000F104C1F04115510599F08A01060F171FFF
:10203000B8010E94E90F882369F0888199812C8179
:102040003D81820F931FB7010E94A0001D830C8366
:1020500081E001C080E0DF91CF911F910F91FF904F
:10206000EF900895DF93CF9300D0CDB7DEB76983AB
:102070001A82BE016F5F7F4F41E050E00E94051061
:102080000F900F90CF91DF910895CF93DF93EC01E4
:1020900088819981009711F00E943E12198218825E
:1020A0001D821C821B821A82DF91CF910895EF92CC
:1020B000FF920F931F93CF93DF93EC017B018A0173
:1020C000BA010E94E90F882321F4CE010E94451035
:1020D00007C01D830C8388819981B7010E94A000ED
:1020E000CE01DF91CF911F910F91FF90EF90089556
:1020F000CF93DF93EC01198218821B821A821D8212
:102100001C821E826115710551F0DB010D900020CB
:10211000E9F71197A61BB70BAD010E945710DF918D
:10212000CF9108950F931F93182F092F61157105F3
:1021300059F0DB010D900020E9F71197A61BB70BB2
:10214000AD010E94571002C00E944510812F902FB0
:102150001F910F910895FC01808191810E943E1290
:102160000895CF93DF930E941F090E94ED05C9EFE8
:10217000DAE00E94C7042097E1F30E94F90AF9CF40
:102180006F927F928F929F92AF92BF92CF92DF9287
:10219000EF92FF920F931F93CF93DF938C010097E1
:1021A00029F4CB010E94A1118C01BBC08EEFE82E57
:1021B0008FEFF82EE00EF11E4801860E971E8E144A
:1021C0009F0408F4ACC0D7014D915C91119746175C
:1021D0005707B8F04530510508F4A3C0CA01049769
:1021E0008617970708F49DC042505040461B570B76
:1021F000F401419351936D937C93CF010E943E1261
:1022000090C05B01A41AB50A3801640E751EA09136
:102210004503B0914603CC24DD24E0E0F0E047C064
:10222000A615B705A9F5CD91DC911197CE010296BF
:102230008A159B0568F1CE018A199B0902961296B0
:102240002C91129713963C91059758F0F401228334
:102250003383CA19DB09D183C083D7016D937C9383
:1022600009C04E5F5F4F4C0F5D1FF70151834083E4
:10227000C901FC01C114D10431F0D6011396FC93BD
:10228000EE9312974EC0F0934603E093450349C086
:102290008D919C911197E817F90708F4FC016D01E5
:1022A00012968C91129713969C919C01D9011097CC
:1022B00009F0B6CF809143039091440386159705AA
:1022C000E9F4E617F707D0F420912F02309130029D
:1022D0002115310541F42DB73EB780912B02909125
:1022E0002C02281B390B82169306C8F490924403E3
:1022F00080924303F7017183608313C0CB010E9476
:10230000A111EC01009759F0D7014D915C91B801F2
:102310000E948E00C8010E943E128E0102C000E0A1
:1023200010E0C801DF91CF911F910F91FF90EF90C6
:10233000DF90CF90BF90AF909F908F907F906F90E5
:1023400008950F931F93CF93DF93BC0182309105C3
:1023500010F462E070E0E0914503F0914603A0E0E4
:10236000B0E040E050E024C080819181861797075B
:10237000D0F08617970771F482819381109729F026
:1023800013969C938E9312972CC090934603809340
:10239000450327C04115510519F08417950718F416
:1023A000EF018D01AC01DF01828193819C01F90174
:1023B0003097D1F641155105F9F0CA01861B970BEC
:1023C0008430910580F48A819B810115110521F0EB
:1023D000F8019383828304C090934603809345035E
:1023E000FE01329645C0FE01E80FF91F619371931B
:1023F0000297998388833CC0809143039091440362
:10240000892B41F480912D0290912E0290934403E8
:102410008093430340912F025091300241155105A2
:1024200041F44DB75EB780912B0290912C02481B6E
:10243000590B209143033091440324173507B0F41E
:10244000CA01821B930B8617970780F0AB014E5F82
:102450005F4F8417950750F0420F531F509344036A
:1024600040934303F9016193719302C0E0E0F0E00F
:10247000CF01DF91CF911F910F910895CF93DF93FB
:102480009C01009709F48FC0EC0122971B821A82ED
:1024900060914503709146036115710581F488814F
:1024A0009981820F931F2091430330914403281791
:1024B000390739F5D0934403C093430374C0DB015B
:1024C00040E050E0AC17BD0708F1BB83AA83FE01D2
:1024D00021913191E20FF31FAE17BF0779F48D916F
:1024E0009C911197280F391F2E5F3F4F3983288306
:1024F00012968D919C9113979B838A834115510568
:1025000071F4D0934603C09345034DC012968D914C
:102510009C911397AD01009711F0DC01D3CFDA0144
:102520001396DC93CE931297FA0121913191E20F29
:10253000F31FCE17DF0769F488819981280F391FAF
:102540002E5F3F4FFA01318320838A819B819383E1
:102550008283E0E0F0E0DB0112968D919C9113976D
:10256000009719F0BC01FD01F6CFAB014E5F5F4F44
:10257000DB018D919C91840F951F20914303309135
:1025800044032817390779F4309729F41092460349
:102590001092450302C01382128242505040509361
:1025A000440340934303DF91CF9108955058BB27D4
:1025B000AA270ED075C166D130F06BD120F031F46E
:1025C0009F3F11F41EF45BC10EF4E095E7FB51C18F
:1025D000E92F77D180F3BA1762077307840795074D
:1025E00018F071F49EF58FC10EF4E0950B2EBA2F02
:1025F000A02D0B01B90190010C01CA01A001112409
:10260000FF27591B99F0593F50F4503E68F11A16B4
:10261000F040A22F232F342F4427585FF3CF469545
:1026200037952795A795F0405395C9F77EF41F1667
:10263000BA0B620B730B840BBAF09150A1F0FF0F31
:10264000BB1F661F771F881FC2F70EC0BA0F621F1D
:10265000731F841F48F4879577956795B795F7950D
:102660009E3F08F0B3CF9395880F08F09927EE0F9F
:10267000979587950895D9D008F481E008950CD0F6
:102680000FC107D140F0FED030F021F45F3F19F0C8
:10269000F0C0511139C1F3C014D198F39923C9F393
:1026A0005523B1F3951B550BBB27AA276217730758
:1026B000840738F09F5F5F4F220F331F441FAA1F0C
:1026C000A9F333D00E2E3AF0E0E830D091505040CC
:1026D000E695001CCAF729D0FE2F27D0660F771F7A
:1026E000881FBB1F261737074807AB07B0E809F05C
:1026F000BB0B802DBF01FF2793585F4F2AF09E3FF1
:10270000510568F0B6C000C15F3FECF3983EDCF3C2
:10271000869577956795B795F7959F5FC9F7880F69
:10272000911D9695879597F90895E1E0660F771FBB
:10273000881FBB1F621773078407BA0720F0621B4C
:10274000730B840BBA0BEE1F88F7E095089504D045
:102750006894B111D9C00895BCD088F09F5790F00B
:10276000B92F9927B751A0F0D1F0660F771F881FB6
:10277000991F1AF0BA95C9F712C0B13081F0C3D0D1
:10278000B1E00895C0C0672F782F8827B85F39F06F
:10279000B93FCCF3869577956795B395D9F73EF415
:1027A00090958095709561957F4F8F4F9F4F0895BD
:1027B000E89409C097FB3EF49095809570956195DB
:1027C0007F4F8F4F9F4F9923A9F0F92F96E9BB2791
:1027D0009395F695879577956795B795F111F8CF0D
:1027E000FAF4BB0F11F460FF1BC06F5F7F4F8F4F78
:1027F0009F4F16C0882311F096E911C0772321F06E
:102800009EE8872F762F05C0662371F096E8862F05
:1028100070E060E02AF09A95660F771F881FDAF75C
:10282000880F9695879597F90895990F0008550F89
:10283000AA0BE0E8FEEF16161706E807F907C0F046
:1028400012161306E407F50798F0621B730B840B4E
:10285000950B39F40A2661F0232B242B252B21F428
:1028600008950A2609F4A140A6958FEF811D811DC8
:10287000089597F99F6780E870E060E008959FEF02
:1028800080EC089500240A94161617061806090607
:10289000089500240A9412161306140605060895D6
:1028A000092E0394000C11F4882352F0BB0F40F45E
:1028B000BF2B11F460FF04C06F5F7F4F8F4F9F4F9E
:1028C000089557FD9058440F551F59F05F3F71F020
:1028D0004795880F97FB991F61F09F3F79F0879587
:1028E0000895121613061406551FF2CF4695F1DF10
:1028F00008C0161617061806991FF1CF86957105A0
:10290000610508940895E894BB2766277727CB01D3
:1029100097F908958ADF08F48FEF08950BD0C0CFA0
:10292000B1DF28F0B6DF18F0952309F0A2CFA7CFCA
:102930001124EACFC6DFA0F3959FD1F3950F50E0A5
:10294000551F629FF001729FBB27F00DB11D639F61
:10295000AA27F00DB11DAA1F649F6627B00DA11D07
:10296000661F829F2227B00DA11D621F739FB00DAD
:10297000A11D621F839FA00D611D221F749F33271D
:10298000A00D611D231F849F600D211D822F762FB6
:102990006A2F11249F5750408AF0E1F088234AF0B3
:1029A000EE0FFF1FBB1F661F771F881F91505040FF
:1029B000A9F79E3F510570F05CCFA6CF5F3FECF3C7
:1029C000983EDCF3869577956795B795F795E795EB
:1029D0009F5FC1F7FE2B880F911D9695879597F9FC
:1029E000089523DF880B990B0895629FD001739F90
:1029F000F001829FE00DF11D649FE00DF11D929F9B
:102A0000F00D839FF00D749FF00D659FF00D9927D9
:102A1000729FB00DE11DF91F639FB00DE11DF91FFD
:102A2000BD01CF0111240895991B79E004C0991FBD
:102A3000961708F0961B881F7A95C9F78095089518
:102A400097FB092E07260AD077FD04D049D006D07F
:102A500000201AF4709561957F4F0895F6F79095D0
:102A600081959F4F0895A1E21A2EAA1BBB1BFD0161
:102A70000DC0AA1FBB1FEE1FFF1FA217B307E4075D
:102A8000F50720F0A21BB30BE40BF50B661F771FB5
:102A9000881F991F1A9469F7609570958095909595
:102AA0009B01AC01BD01CF01089597FB092E0526BE
:102AB0000ED057FD04D0D7DF0AD0001C38F4509553
:102AC0004095309521953F4F4F4F5F4F0895F6F752
:102AD00090958095709561957F4F8F4F9F4F08958A
:102AE000AA1BBB1B51E107C0AA1FBB1FA617B70734
:102AF00010F0A61BB70B881F991F5A95A9F7809550
:102B00009095BC01CD010895EE0FFF1F0590F49143
:102B1000E02D099410E0C6ECD0E004C0FE010E9454
:0E2B200086152296C83CD107C9F7F894FFCF5E
:102B2E00004F4B00484F4D494E47004C6F63617448
:102B3E00696F6E2028436F756E7473293A200050AA
:102B4E00756D703A200056656E743A200041524DF4
:102B5E0020416E676C653A2000575249535420410C
:102B6E006E676C653A200044454255473A20004551
:102B7E0072726F723A20004E6F204469736B00427E
:102B8E0075726E65725F56003E2000757000646F40
:102B9E00776E7300646F776E0070756D70206F6E58
:102BAE000070756D70206F66660076656E74006CD1
:102BBE006566740072696768740073746F7000687C
:102BCE006F6D650073746174757300646F776E73E7
:102BDE0065656B00676574206469736B006C6F616B
:102BEE0064206469736B00706C6163652064697343
:102BFE006B006465627567206F6E00646562756751
:102C0E00206F6666006563686F206F6E006563688F
:102C1E006F206F6666004572726F722C20556E6B58
:102C2E006E6F776E20436F6D6D616E643A20007229
:102C3E00656164790A006E616E00696E66006F767A
:102C4E0066002E001A002D000101008000470300CF
:102C5E000000000000380CCE0CCE0BFF0BDF0B2853
:022C6E000C0058
:00000001FF
