:100000000C9464000C94640A0C94910A0C948C0077
:100010000C948C000C948C000C948C000C948C0030
:100020000C948C000C948C000C948C000C94810823
:100030000C948C000C948C000C948C000C948C0010
:100040000C943F090C948C000C94A50B0C94F30BAE
:100050000C948C000C948C000C948C000C948C00F0
:100060000C948C000C948C000000000024002700ED
:100070002A0000000000250028002B0000000000DE
:1000800023002600290004040404040404040202DA
:100090000202020203030303030301020408102007
:1000A0004080010204081020010204081020000012
:1000B0000007000201000003040600000000000029
:1000C000000055015F0D4E0111241FBECFEFD4E09B
:1000D000DEBFCDBF12E0A0E0B1E0ECEFFCE202C079
:1000E00005900D92AA35B107D9F713E0AAE5B2E061
:1000F00001C01D92AB35B107E1F710E0C6ECD0E0CE
:1001000004C02297FE010E946D16C23CD107C9F7B8
:100110000E9498110C9471160C940000FB01DC01F4
:1001200002C001900D9241505040D8F70895FB0154
:10013000DC018D91019080190110D9F3990B08957C
:10014000FB01DC0101900D920020E1F7089510926F
:100150003D0210923C021092630210926202809162
:100160006602882331F085E393E060E071E00E944D
:10017000DF0F08950E94870920915E0230915F028F
:100180004091600250916102621B730B840B950BCE
:1001900060527E448040904064F00E94A7000E941C
:1001A000870960935E0270935F0280936002909370
:1001B0006102089560916202709163026F5F7F4FE8
:1001C000709363026093620280916602882331F02B
:1001D00085E393E04AE050E00E94D60E80916202EF
:1001E00090916302819724F0109263021092620250
:1001F00008950E94870920915A0230915B02409134
:100200005C0250915D02621B730B840B950B409155
:100210003A0250913B0228EE33E0F9014E9F9001E3
:100220004F9F300D5E9F300D1124442737FD4095C0
:10023000542F621773078407950764F00E94DA0051
:100240000E94870960935A0270935B0280935C025C
:1002500090935D02089581309105B1F46F5F7F4FF7
:10026000E1F48AE692E066E071E00E945F1181E7C6
:1002700092E00E943D0784E792E00E943D0787E7F5
:1002800092E00E943D070895892B39F46F5F7F4FFC
:1002900021F48AE692E00E949211089580E090E0B5
:1002A0006FEF7FEF0E942B01089581E090E06FEFE8
:1002B0007FEF0E942B0108950F931F93CF93DF933D
:1002C0008C01C0914102D091420210C087E792E0B8
:1002D000BE010E949307D0934202C093410262E3A1
:1002E00070E080E090E00E94AD092196C017D10730
:1002F0006CF3DF91CF911F910F9108950F931F938E
:10030000CF93DF938C01C0914102D091420210C083
:1003100087E792E0BE010E949307D0934202C09308
:10032000410264E170E080E090E00E94AD09219715
:100330000C171D076CF3DF91CF911F910F9108955A
:10034000CF93DF93C0913F02D091400215C081E767
:1003500092E0BE010E94930784E792E0BE010E94F2
:1003600093076FE070E080E090E00E94AD09D093C9
:100370004002C0933F022197CA31D10544F78DE274
:1003800090E00E947E0185E393E067E071E00E94C7
:10039000DF0FDF91CF91089581E792E06AE170E08D
:1003A0000E94930784E792E06AE170E00E9493075D
:1003B00085E393E067E071E00E94DF0F0895CF923C
:1003C000DF92EF92FF920F931F93CF93DF936B0116
:1003D000C0913F02D09140027C010027F7FC0095BC
:1003E000102F13C081E792E0BE010E94930784E7BB
:1003F00092E0BE010E949307C801B7010E94AD09B7
:10040000D0934002C0933F022196CC15DD0554F3F2
:1004100085E393E067E071E00E94DF0FDF91CF9109
:100420001F910F91FF90EF90DF90CF90089584E09F
:1004300060E00E94FD0A86E060E00E94FD0A0895E7
:10044000CF93DF93EC0184E060E00E94FD0A86E038
:1004500061E00E94FD0A109263021092620206C0DF
:1004600061E070E080E090E00E94AD09809162025E
:1004700090916302C817D9079CF70E9417028091D8
:100480003C0290913D022091620230916302821BF6
:10049000930B90933D0280933C0285E393E067E0E9
:1004A00071E00E94DF0FDF91CF910895CF93DF932A
:1004B000EC0184E061E00E94FD0A86E060E00E94B9
:1004C000FD0A109263021092620206C061E070E0C1
:1004D00080E090E00E94AD098091620290916302F9
:1004E000C817D9079CF70E94170280913C0290918F
:1004F0003D022091620230916302820F931F90931C
:100500003D0280933C0285E393E067E071E00E9446
:10051000DF0FDF91CF9108950F931F938C01F89413
:1005200085E060E00E94FD0A87E0602F0E94FD0ADE
:1005300085E393E067E071E00E94DF0F10926402B0
:10054000012B19F081E08093640264EF71E080E098
:1005500090E00E94AD0978941F910F910895F8944E
:1005600080E090E00E948C028EE061E00E94FD0A33
:1005700068EE73E080E090E00E94AD098EE060E0FC
:100580000E94FD0A85E393E067E071E00E94DF0FBF
:1005900064EF71E080E090E00E94AD0978940895E6
:1005A000CF93DF93809141029091420288960E94FE
:1005B0005C0182E390E06CE370E00E94DF0168EE92
:1005C00073E080E090E00E94AD09C0E0D0E060916F
:1005D0003F02709140026C0F7D1F81E792E00E9404
:1005E000930762E370E080E090E00E94AD092196FD
:1005F000CA30D10561F76EEE72E080E090E00E94B3
:10060000AD090E94AF020E94A001DF91CF91089531
:100610008DE290E00E947E0164EF71E080E090E066
:100620000E94AD0910926302109262020E94A00122
:1006300080916602882379F085E393E06AE071E0B7
:100640000E94DF0F08C084E060E00E94FD0A86E09F
:1006500061E00E94FD0A80913C0290913D021816D3
:1006600019068CF364EF71E080E090E00E94AD0920
:100670000E94170285E393E067E071E00E94DF0FBC
:10068000089560913C0270913D02603171057CF0EB
:100690006F50704085E393E04AE050E00E94D60E30
:1006A00080913C0290913D020F970E942002209180
:1006B0003C0230913D022F30310534F48FE090E060
:1006C000821B930B0E94560208950F931F9305E31C
:1006D00013E0C80161E171E00E94F50E60913C02F7
:1006E00070913D02C8014AE050E00E94D60EC80158
:1006F00065E271E00E94F50E60916402C80170E04D
:100700004AE050E00E94D60EC8016CE271E00E94FF
:10071000F50E60916502C80170E04AE050E00E9469
:10072000D60EC80163E371E00E94F50E60913F02AE
:1007300070914002C8014AE050E00E94D60EC80104
:100740006FE371E00E94F50E6091410270914202E8
:10075000C8014AE050E00E94D60EC8016DE471E085
:100760000E94F50E60916602C80170E04AE050E018
:100770000E94D60E1F910F9108952F923F924F9293
:100780005F926F927F928F929F92AF92BF92CF9221
:10079000DF92EF92FF920F931F93DF93CF93CDB72A
:1007A000DEB728970FB6F894DEBF0FBECDBF7A83B1
:1007B000698320913F023091400238872F8366245D
:1007C00077244301442737FD4095542F2B833C83E6
:1007D0004D835E831C01442437FC4094542C7BC021
:1007E00000D000D06B817C818D819E81660D771D4C
:1007F000881D991D29E630E040E050E0EDB7FEB7D6
:1008000021833283438354832AE130E040E050E087
:10081000F6E9EF2EF12C012D112DE4E6AE2EB12CD0
:10082000C12CD12C0E943910709342026093410276
:100830000F900F900F900F9081E792E06F81788575
:100840000E94930784E792E06F8178850E94930766
:10085000609141027091420287E792E00E94930703
:10086000C201B1010E94AD092F8138853093400249
:1008700020933F0280E10E94510B892B11F54981A1
:100880005A81452BF1F062E370E080E090E00E9435
:10089000AD0980E10E94510B892B99F40F811885D5
:1008A0000B5F1F4F81E792E0B8010E94930784E736
:1008B00092E0B8010E9493071093400200933F0218
:1008C00010C08F819885019698878F830894611C4A
:1008D000711C811C911CEF81F885E436F1050CF444
:1008E0007FCF85E393E067E071E00E94DF0F2896F9
:1008F0000FB6F894DEBF0FBECDBFCF91DF911F9131
:100900000F91FF90EF90DF90CF90BF90AF909F90AE
:100910008F907F906F905F904F903F902F900895B1
:10092000CF93DF930E944103809141029091420254
:1009300088960E945C0182E390E06CE370E00E9484
:10094000DF0168EE73E080E090E00E94AD09C0E056
:10095000D0E060913F02709140026C0F7D1F81E7F3
:1009600092E00E94930762E370E080E090E00E94D2
:10097000AD092196CA30D10561F781E090E00E946F
:100980008C0264EF71E080E090E00E94AD0982E3A8
:1009900090E061E070E00E94BD0368EE73E080E0EB
:1009A00090E00E94AD0980914102909142028897A7
:1009B0000E947E0168EE73E080E090E00E94AD0945
:1009C0000E94A001DF91CF910895EF92FF920F93C3
:1009D0001F937C0105E313E0C80165E571E00E9407
:1009E000F50EC801B7010E9425101F910F91FF90CD
:1009F000EF9008950F931F93DF93CF93CDB7DEB79A
:100A000027970FB6F894DEBF0FBECDBF0E94080334
:100A100068EE73E080E090E00E94AD0982E390E030
:100A200061E070E00E94BD0381E090E00E948C02D2
:100A300060ED77E080E090E00E94AD090E94A001A7
:100A400064EF71E080E090E00E94AD0980E10E94D7
:100A5000510B019731F562E370E080E090E00E9475
:100A6000AD0980E10E94510B0197D9F40E94FA046C
:100A7000809167029091680201969093680280933A
:100A80006702069774F08E010F5F1F4FC8016DE576
:100A900071E00E945F11C8010E94E504C8010E9434
:100AA000921127960FB6F894DEBF0FBECDBFCF913F
:100AB000DF911F910F91089580E10E94510B0197E2
:100AC00069F462E370E080E090E00E94AD0980E1AB
:100AD0000E94510B019711F40E94FA040E944103F5
:100AE00064EF71E080E090E00E94AD090E94D002C6
:100AF00008950F931F9305E313E0C80165E671E0C5
:100B00000E94F50EC8014DEC5CEC6CEC7DE322E03C
:100B100030E00E94DC0FC8016EE671E00E94F50E25
:100B20001F910F9108952DC185E393E00E94E60C7B
:100B3000682F8093690280913E02882321F085E32B
:100B400093E00E94DF0D609169026D3009F015C1DC
:100B500080913E02882321F085E393E00E94E70D17
:100B60008AE692E061E771E00E949310882319F011
:100B70000E94A001F5C08AE692E064E771E00E945D
:100B80009310882339F082E390E060E070E00E94E7
:100B9000BD03E6C08AE692E06AE771E00E94931026
:100BA000882339F082E390E064E670E00E94DF0180
:100BB000D7C08AE692E06FE771E00E949310882325
:100BC00019F081E090E00AC08AE692E067E871E0FF
:100BD0000E949310882329F080E090E00E948C020C
:100BE000BFC08AE692E060E971E00E94931088231A
:100BF00019F00E94AF02B4C08AE692E065E971E0A4
:100C00000E949310882329F080E190E00E94200246
:100C1000A7C08AE692E06AE971E00E9493108823F7
:100C200019F00E9441039CC08AE692E061EA71E0FB
:100C30000E949310882329F08FE090E00E945602D2
:100C40008FC08AE692E067EA71E00E9493108823E1
:100C500019F00E94170284C08AE692E06CEA71E003
:100C60000E949310882319F00E94080379C08AE635
:100C700092E061EB71E00E949310882341F48AE6D0
:100C800092E068EB71E00E949310882319F00E94B3
:100C9000650366C08AE692E06EEB71E00E949310F5
:100CA000882319F00E94FA045BC08AE692E067ECA0
:100CB00071E00E949310882319F00E945C0550C0D7
:100CC0008AE692E061ED71E00E949310882319F0AA
:100CD0000E94900445C08AE692E06DED71E00E94AA
:100CE0009310882319F00E94D0023AC08AE692E05D
:100CF00068EE71E00E949310882321F081E08093D8
:100D000066022EC08AE692E061EF71E00E949310C5
:100D1000882319F01092660223C08AE692E06BEFF6
:100D200071E00E949310882321F081E080933E02BD
:100D300017C08AE692E063E072E00E949310882375
:100D400019F010923E020CC085E393E06CE072E073
:100D50000E94F50E85E393E06AE672E00E9425109A
:100D60008AE692E066E071E00E94791180913E028D
:100D7000882339F00E94790504C08AE692E00E9437
:100D8000191185E393E00E94B50C892B09F0CCCEB4
:100D9000089581E792E069E070E00E947A0884E7B4
:100DA00092E06AE070E00E947A0887E792E06BE0E8
:100DB00070E00E947A0884E061E00E94BE0A86E04A
:100DC00061E00E94BE0A85E061E00E94BE0A87E001
:100DD00061E00E94BE0A8EE061E00E94BE0A82E0ED
:100DE00060E00E94BE0A83E060E00E94BE0A80E1EB
:100DF00060E00E94BE0A83E061E00E94FD0A80E19B
:100E000061E00E94FD0A80E069EF70E041E050E09F
:100E10000E94410A81E06AEB70E042E050E00E94EB
:100E2000410A85E393E040E855E260E070E00E940B
:100E30002E0C85E393E065E272E00E94DF0F8DE205
:100E400090E00E947E010E94CC0164EF71E080E09E
:100E500090E00E94AD0983E00E94510B892B21F4A0
:100E600010923D0210923C020E94080380913E02C3
:100E7000882311F00E9479050895FC0180917A027F
:100E80008C3090F480838F5F80937A02815090E061
:100E9000FC01EE0FFF1FE80FF91FE558FD4F88EB2F
:100EA0009BE09283818308958FEF80830895FC01F6
:100EB00020812C30B8F58181992787FD909548E8ED
:100EC00050E0481B590B440F551F440F551F641722
:100ED000750784F08281992787FD909548E552E057
:100EE000481B590B440F551F440F551F64177507B6
:100EF0000CF4AB0142505040CA01AA2797FDA095BF
:100F0000BA2F880F991FAA1FBB1F4FB7F89430E064
:100F1000F901EE0FFF1FE20FF31FE558FD4F92831B
:100F200081834FBF0895AF92BF92CF92DF92EF922D
:100F3000FF920F931F93CF93DF93EC019B0182E00D
:100F4000603278070CF048C077FF03C020E030E043
:100F500005C0653B710514F024EB30E000D000D0F3
:100F6000B901882777FD8095982F2981332727FDA0
:100F70003095E8E8AE2EB12CA21AB30AAA0CBB1C1D
:100F8000AA0CBB1CCC24B7FCC094DC2CEA81FF2744
:100F9000E7FDF09528E532E02E1B3F0B220F331FB3
:100FA000220F331F442737FD4095542FEDB7FEB76E
:100FB000218332834383548320E030E040E050E0DB
:100FC00004EBE02EF12C012D112D0E9439109B0114
:100FD0000F900F900F900F90CE01B9010E9457070C
:100FE000DF91CF911F910F91FF90EF90DF90CF9005
:100FF000BF90AF900895CF92DF92EF92FF921F9330
:10100000CF93DF93EC01162F7A01690188818C3030
:1010100008F064C0862F61E00E94BE0A888190E0DB
:10102000FC01EE0FFF1FE80FF91FE558FD4F1F737E
:101030008081807C812B808380E292E08E199F09E1
:1010400064E070E00E940716698380E699E08C19DD
:101050009D0964E070E00E9407166A83A8818A2FC8
:101060006CE00E94FB15682F70E0AB01440F551F28
:10107000460F571F440F551F440F551F20E030E007
:10108000C901840F951FFC01EE0FFF1FE80FF91F28
:10109000E558FD4F808186FD15C02F5F3F4F2C30F6
:1010A000310571F724C01092800082E080938100A6
:1010B0001092850010928400B19A80916F00826036
:1010C00080936F008A2F90E0FC01EE0FFF1FE80F66
:1010D000F91FE558FD4F8081806480838881DF910E
:1010E000CF911F91FF90EF90DF90CF900895672BE5
:1010F000D1F2E8CF40E252E020E639E00E94FB075F
:1011000008951F920F920FB60F9211242F933F93C1
:101110004F935F936F937F938F939F93AF93BF93FF
:10112000EF93FF9380919F0287FF05C01092850087
:10113000109284002BC020919F02332727FD309509
:1011400080917A0290E02817390704F580919F0278
:10115000992787FD9095FC01EE0FFF1FE80FF91FFF
:10116000E558FD4F808186FF11C080919F0299272D
:1011700087FD9095FC01EE0FFF1FE80FF91FE55862
:10118000FD4F80818F7360E00E94FD0A80919F0275
:101190008F5F80939F0220919F02332727FD309518
:1011A00080917A0290E0281739070CF04EC08091A8
:1011B0009F028C300CF049C0209184003091850052
:1011C00080919F02992787FD9095FC01EE0FFF1FEC
:1011D000E80FF91FE558FD4F81819281280F391FD3
:1011E000309389002093880080919F02992787FD82
:1011F0009095FC01EE0FFF1FE80FF91FE558FD4F1A
:10120000808186FF2BC080919F02992787FD909552
:10121000FC01EE0FFF1FE80FF91FE558FD4F80811D
:101220008F7361E00E94FD0A19C080E49CE905C04B
:10123000809184009091850004969093890080931A
:1012400088008FEF80939F0209C080918400909165
:101250008500049680549C4940F3EACFFF91EF91BA
:10126000BF91AF919F918F917F916F915F914F91BE
:101270003F912F910F900FBE0F901F9018951F92C6
:101280000F920FB60F9211242F933F938F939F933A
:10129000AF93BF938091A4029091A502A091A60262
:1012A000B091A7023091A8020196A11DB11D232F74
:1012B0002D5F2D3720F02D570196A11DB11D2093D4
:1012C000A8028093A4029093A502A093A602B093D3
:1012D000A7028091A0029091A102A091A202B091D8
:1012E000A3020196A11DB11D8093A0029093A102BB
:1012F000A093A202B093A302BF91AF919F918F914F
:101300003F912F910F900FBE0F901F9018959FB790
:10131000F8942091A0023091A1024091A202509134
:10132000A30286B5A89B06C08F3F21F02F5F3F4FD9
:101330004F4F5F4F9FBF542F432F322F2227280F2D
:10134000311D411D511D82E0220F331F441F551FC7
:101350008A95D1F7B901CA0108959B01AC017FB705
:10136000F8948091A0029091A102A091A202B09164
:10137000A30266B5A89B05C06F3F19F00196A11D99
:10138000B11D7FBFBA2FA92F982F8827860F911DD7
:10139000A11DB11D62E0880F991FAA1FBB1F6A958E
:1013A000D1F7BC012DC0FFB7F8948091A0029091B5
:1013B000A102A091A202B091A302E6B5A89B05C02C
:1013C000EF3F19F00196A11DB11DFFBFBA2FA92F44
:1013D000982F88278E0F911DA11DB11DE2E0880F67
:1013E000991FAA1FBB1FEA95D1F7861B970B885E32
:1013F0009340C8F2215030404040504068517C4FEB
:10140000211531054105510571F60895789484B58B
:10141000826084BD84B5816084BD85B5826085BDF0
:1014200085B5816085BDEEE6F0E0808181608083D6
:10143000E1E8F0E0108280818260808380818160B9
:101440008083E0E8F0E0808181608083E1EBF0E080
:10145000808184608083E0EBF0E080818160808324
:10146000EAE7F0E08081846080838081826080830D
:101470008081816080838081806880831092C10038
:101480000895823000F5E82FF0E0EE0FFF1FE755DA
:10149000FD4F71836083882319F08130A1F408C067
:1014A000809169008C7F842B80936900E89A08956D
:1014B00080916900440F551F440F551F837F842B73
:1014C00080936900E99A08951F920F920FB60F92C8
:1014D00011242F933F934F935F936F937F938F9339
:1014E0009F93AF93BF93EF93FF938091A902909145
:1014F000AA02892B29F0E091A902F091AA0209958C
:10150000FF91EF91BF91AF919F918F917F916F91DB
:101510005F914F913F912F910F900FBE0F901F90B1
:1015200018951F920F920FB60F9211242F933F938D
:101530004F935F936F937F938F939F93AF93BF93DB
:10154000EF93FF938091AB029091AC02892B29F02D
:10155000E091AB02F091AC020995FF91EF91BF9140
:10156000AF919F918F917F916F915F914F913F913B
:101570002F910F900FBE0F901F901895CF93DF9370
:10158000482F50E0CA0186569F4FFC0134914A57BC
:101590005F4FFA018491882369F190E0880F991FC9
:1015A000FC01E859FF4FA591B491FC01EE58FF4FA3
:1015B000C591D491662351F42FB7F8948C91932F51
:1015C000909589238C93888189230BC0623061F4C4
:1015D0002FB7F8948C91932F909589238C938881C1
:1015E000832B88832FBF06C09FB7F8948C91832BE1
:1015F0008C939FBFDF91CF910895482F50E0CA018F
:1016000082559F4FFC012491CA0186569F4FFC01D1
:1016100094914A575F4FFA013491332309F440C043
:10162000222351F1233071F0243028F42130A1F02D
:10163000223011F514C02630B1F02730C1F024302B
:10164000D9F404C0809180008F7703C0809180001E
:101650008F7D8093800010C084B58F7702C084B5E1
:101660008F7D84BD09C08091B0008F7703C08091C9
:10167000B0008F7D8093B000E32FF0E0EE0FFF1FEE
:10168000EE58FF4FA591B4912FB7F894662321F43B
:101690008C919095892302C08C91892B8C932FBFBC
:1016A0000895682F70E0CB0182559F4FFC01249173
:1016B000CB0186569F4FFC0144916A577F4FFB0137
:1016C0009491992319F420E030E03CC0222351F199
:1016D000233071F0243028F42130A1F0223011F5AC
:1016E00014C02630B1F02730C1F02430D9F404C042
:1016F000809180008F7703C0809180008F7D8093E0
:10170000800010C084B58F7702C084B58F7D84BD02
:1017100009C08091B0008F7703C08091B0008F7DA9
:101720008093B000892F90E0880F991F84589F4FB5
:10173000FC01A591B4918C9120E030E0842311F05C
:1017400021E030E0C901089508951F920F920FB66D
:101750000F9211242F933F934F938F939F93EF9367
:10176000FF938091C00082FD1DC04091C600209172
:10177000ED023091EE022F5F3F4F2F73307080915A
:10178000EF029091F0022817390771F0E091ED0215
:10179000F091EE02E355FD4F40833093EE0220932B
:1017A000ED0202C08091C600FF91EF919F918F9151
:1017B0004F913F912F910F900FBE0F901F90189552
:1017C000E0914103F0914203E05CFF4F81919191E0
:1017D00020813181821B930B8F739070892B11F0C4
:1017E0000E94A40B08951F920F920FB60F9211241E
:1017F0002F933F938F939F93EF93FF932091310308
:1018000030913203809133039091340328173907C4
:1018100031F48091C1008F7D8093C10014C0E091AC
:101820003303F0913403EF50FD4F20818091330357
:101830009091340301968F7390709093340380934A
:1018400033032093C600FF91EF919F918F913F91B9
:101850002F910F900FBE0F901F901895AF92BF92CF
:10186000DF92EF92FF920F931F93CF93DF93EC01E0
:101870007A018B01DD24403081EE580780E0680753
:1018800080E0780711F0DD24D39491E0A92EB12CEB
:10189000EC89FD89DD2069F0C50108A002C0880F30
:1018A000991F0A94E2F7808360E079E08DE390E08D
:1018B00005C0108260E874E88EE190E0A80197010D
:1018C0000E941A162150304040405040569547958E
:1018D0003795279580E12030380720F0DD2011F082
:1018E000DD24D6CFE889F9893083EA89FB89208312
:1018F00019A2EE89FF89408121E030E0C9010C8CFA
:1019000002C0880F991F0A94E2F7482B4083EE89A2
:10191000FF894081C9010D8C02C0880F991F0A946C
:10192000E2F7482B4083EE89FF894081C9010E8C84
:1019300002C0880F991F0A94E2F7482B4083EE8972
:10194000FF8980810F8C02C0220F331F0A94E2F7B7
:10195000209528232083DF91CF911F910F91FF9035
:10196000EF90DF90BF90AF900895DC011C96ED9151
:10197000FC911D97E05CFF4F219131918081918115
:10198000281B390B2F733070C9010895DC011C9698
:10199000ED91FC911D97E05CFF4F20813181E05477
:1019A000F040DF01AE5BBF4F8D919C9111972817DE
:1019B000390719F42FEF3FEF07C08D919C91E80F85
:1019C000F91F8081282F30E0C9010895DC011C96A1
:1019D000ED91FC911D97E05CFF4F20813181E05437
:1019E000F040DF01AE5BBF4F8D919C91119728179E
:1019F000390719F42FEF3FEF10C08D919C9111978B
:101A0000E80FF91F20818D919C91119701968F739A
:101A1000907011969C938E9330E0C9010895DC017B
:101A200091968C919197882339F05496ED91FC9181
:101A30005597808186FFF9CF91961C920895CF9398
:101A4000DF93EC01EE85FF85E05CFF4F2081318163
:101A5000E054F0402F5F3F4F2F733070DF01AE5BDB
:101A6000BF4F8D919C91119728173907D1F3E05CF6
:101A7000FF4F80819181E054F040E80FF91F6083AF
:101A8000EE85FF85E05CFF4F31832083EE89FF897F
:101A9000208181E090E00F8C02C0880F991F0A948A
:101AA000E2F7282B208381E089A3EC89FD898081DE
:101AB0008064808381E090E0DF91CF91089510925F
:101AC00038031092370388EE93E0A0E0B0E08093F3
:101AD000390390933A03A0933B03B0933C038DE406
:101AE00092E090933603809335038DEA92E09093D1
:101AF00042038093410381EF92E0909344038093EB
:101B0000430385EC90E0909346038093450384EC77
:101B100090E0909348038093470380EC90E090938B
:101B20004A038093490381EC90E090934C038093A7
:101B30004B0382EC90E090934E0380934D0386EC30
:101B400090E09093500380934F0384E0809351037F
:101B500083E08093520387E08093530385E0809372
:101B6000540381E0809355030895CF92DF92EF9262
:101B7000FF920F931F93CF93DF937C016B018A0138
:101B8000C0E0D0E00FC0D6016D916D01D701ED919D
:101B9000FC910190F081E02DC7010995C80FD91F74
:101BA000015010400115110571F7CE01DF91CF9161
:101BB0001F910F91FF90EF90DF90CF900895DC017F
:101BC000ED91FC910190F081E02D09950895EF923F
:101BD000FF920F931F938C01DC01ED91FC9101901A
:101BE000F081E02D6DE009957C01D801ED91FC912B
:101BF0000190F081E02DC8016AE009959C012E0D4D
:101C00003F1DC9011F910F91FF90EF900895CF9351
:101C1000DF93EC016115710519F420E030E00FC08D
:101C2000DB010D900020E9F71197A61BB70BE881A7
:101C3000F9810280F381E02DAD0109959C01C90174
:101C4000DF91CF9108954F925F927F928F929F92F2
:101C5000AF92BF92CF92DF92EF92FF920F931F93BA
:101C6000DF93CF93CDB7DEB7A1970FB6F894DEBF61
:101C70000FBECDBF2C01742ECB01223008F42AE018
:101C800019A231E2C32ED12CCC0EDD1E822E992456
:101C9000AA24BB24672D752FA50194010E941A1652
:101CA00079018A01C801B701A50194010E94DC15E0
:101CB000472D461B0894C108D1084A3014F4405DF2
:101CC00001C0495CF6014083E114F10401051105EE
:101CD00021F07E2C5F2DC801DDCFC201B6010E942C
:101CE000070EA1960FB6F894DEBF0FBECDBFCF9101
:101CF000DF911F910F91FF90EF90DF90CF90BF90F9
:101D0000AF909F908F907F905F904F900895DC01EF
:101D10002115310541F4ED91FC910190F081E02D08
:101D2000642F099508950E94230E0895CF92DF92A3
:101D3000EF92FF920F931F93CF93DF93EC016A0111
:101D40007B012115310541F4E881F9810190F08191
:101D5000E02D642F09951FC02A303105D1F477FF9B
:101D600017C0E881F9810190F081E02D6DE20995BD
:101D70008C0144275527BA014C195D096E097F096A
:101D8000CE012AE00E94230E9801280F391F04C0BB
:101D90002AE00E94230E9C01C901DF91CF911F917F
:101DA0000F91FF90EF90DF90CF900895CF92DF9248
:101DB000EF92FF920F931F936C017B019A01002712
:101DC000F7FC0095102FB801A7010E94960E8C0118
:101DD000C6010E94E70D080F191FC8011F910F913E
:101DE000FF90EF90DF90CF9008950E94070E089526
:101DF0007F928F929F92AF92BF92CF92DF92EF929B
:101E0000FF920F931F93CF93DF934C017A018B01C5
:101E1000722ECB01BA01A80197010E94D815882320
:101E200021F0C4016CE272E021C0C0E0D0E05701B3
:101E30006801E894D7F8C601B5012FEF3FEF4FE7EF
:101E40005FE70E94D815882351F4C601B5012FEF32
:101E50003FEF4FE75FE70E942214181614F0C1E02D
:101E6000D0E0219739F0C40160E372E00E94070ED0
:101E7000EC0193C0C801B7012FEF3FEF4FE75FE4DC
:101E80000E947115181654F0C801B7012FEF3FEFEB
:101E90004FE75FEC0E942214882324F4C40164E31A
:101EA00072E0E4CFC801B70120E030E040E050E04C
:101EB0000E94221487FD03C0C0E0D0E00EC0D40110
:101EC000ED91FC910190F081E02DC4016DE2099546
:101ED000EC0117FB109517F9109520E030E040E079
:101EE0005FE3DD240BC0CA01B90120E030E040E22D
:101EF00051E40E9426149B01AC01D394D71498F3AB
:101F0000C801B7010E94BE135B016C010E949314CB
:101F10007B018C01C401B801A7012AE030E00E94D6
:101F2000870EC80FD91F772039F0C40168E372E02B
:101F30000E94070EC80FD91FC801B7010E94BF1425
:101F40009B01AC01C601B5010E94BD1324C020E075
:101F500030E040E251E40E9475157B018C010E9443
:101F60008E145B016C01CC24B7FCC094DC2CC40142
:101F7000B601A5012AE030E00E94960EC80FD91FD5
:101F8000C601B5010E94C1149B01AC01C801B70193
:101F90000E94BD137A947720D1F6CE01DF91CF91C4
:101FA0001F910F91FF90EF90DF90CF90BF90AF9077
:101FB0009F908F907F9008950E94F80E0895EF9261
:101FC000FF920F931F937C010E94070E8C01C701A3
:101FD0000E94E70D080F191FC8011F910F91FF9074
:101FE000EF900895AF92BF92CF92DF92EF92FF925F
:101FF0000F931F93CF93DF935C016B01EE24FF24BB
:10200000C0E0D0E010C0D501ED91FC9100811181BC
:10201000C601BE010E948210682FC501F801099512
:10202000E80EF91E2196F60184819581C817D9071B
:1020300050F3C701DF91CF911F910F91FF90EF9067
:10204000DF90CF90BF90AF900895EF92FF920F93E3
:102050001F937C010E94F20F8C01C7010E94E70DC3
:102060009C01200F311FC9011F910F91FF90EF902C
:1020700008952F923F924F925F926F927F928F922C
:102080009F92AF92BF92CF92DF92EF92FF920F9307
:102090001F93DF93CF93CDB7DEB73B014C011901FE
:1020A0002A016D897E898F89988D6A197B098C092F
:1020B0009D09621A730A840A950AA40193010E9479
:1020C000DC15E218F30804091509A80197010E941C
:1020D0003C162A0D3B1D4C1D5D1DB901CA01CF9157
:1020E000DF911F910F91FF90EF90DF90CF90BF9005
:1020F000AF909F908F907F906F905F904F903F90A8
:102100002F900895FC01848195816817790748F420
:102110000190F081E02D309721F0E60FF71F8081CC
:10212000089580E00895DC01FB0114968D919C9147
:102130001597892B31F461157105A9F090E0808124
:1021400008C00D90BC91A02D6115710529F490E097
:102150008C91882349F407C0CD010E9497009C010F
:1021600090E0232B09F491E0892F08950F931F939A
:10217000CF93DF93EC018B016F5F7F4F8881998153
:102180000E94A711009711F480E005C0998388830D
:102190001B830A8381E0DF91CF911F910F910895F6
:1021A000CF93DF93EC0188819981892B29F08A8173
:1021B0009B818617970760F4CE010E94B610882392
:1021C00041F08C819D81892B19F4E881F98110827D
:1021D00081E0DF91CF910895EF92FF920F931F93CB
:1021E000CF93DF93EC017B016C817D81E114F104DD
:1021F000C1F04115510599F08A01060F171FB8016A
:102200000E94D010882369F0888199812C813D81BA
:10221000820F931FB7010E94A0001D830C8381E0F1
:1022200001C080E0DF91CF911F910F91FF90EF905F
:102230000895DF93CF9300D0CDB7DEB769831A82BC
:10224000BE016F5F7F4F41E050E00E94EC100F90A5
:102250000F90CF91DF910895CF93DF93EC018881A8
:102260009981009711F00E942513198218821D820E
:102270001C821B821A82DF91CF910895EF92FF9208
:102280000F931F93CF93DF93EC017B018A01BA0177
:102290000E94D010882321F4CE010E942C1107C087
:1022A0001D830C8388819981B7010E94A000CE0113
:1022B000DF91CF911F910F91FF90EF900895CF93F1
:1022C000DF93EC01198218821B821A821D821C8204
:1022D0001E826115710551F0DB010D900020E9F7B8
:1022E0001197A61BB70BAD010E943E11DF91CF9154
:1022F00008950F931F93182F092F6115710559F039
:10230000DB010D900020E9F71197A61BB70BAD017B
:102310000E943E1102C00E942C11812F902F1F910C
:102320000F910895FC01808191810E9425130895E9
:10233000CF93DF930E94060A0E94C906C0EEDBE03D
:102340000E9493052097E1F30E94E00BF9CF6F9272
:102350007F928F929F92AF92BF92CF92DF92EF9235
:10236000FF920F931F93CF93DF938C01009729F473
:10237000CB010E9488128C01BBC08EEFE82E8FEF3C
:10238000F82EE00EF11E4801860E971E8E149F0453
:1023900008F4ACC0D7014D915C91119746175707CF
:1023A000B8F04530510508F4A3C0CA010497861758
:1023B000970708F49DC042505040461B570BF4014C
:1023C000419351936D937C93CF010E94251390C04C
:1023D0005B01A41AB50A3801640E751EA091590359
:1023E000B0915A03CC24DD24E0E0F0E047C0A6150C
:1023F000B705A9F5CD91DC911197CE0102968A150A
:102400009B0568F1CE018A199B09029612962C91C0
:10241000129713963C91059758F0F4012283338369
:10242000CA19DB09D183C083D7016D937C9309C09E
:102430004E5F5F4F4C0F5D1FF70151834083C90111
:10244000FC01C114D10431F0D6011396FC93EE9334
:1024500012974EC0F0935A03E093590349C08D91EF
:102460009C911197E817F90708F4FC016D01129689
:102470008C91129713969C919C01D901109709F0A9
:10248000B6CF809157039091580386159705E9F4CC
:10249000E617F707D0F42091470230914802211542
:1024A000310541F42DB73EB780914302909144022B
:1024B000281B390B82169306C8F490925803809219
:1024C0005703F7017183608313C0CB010E94881208
:1024D000EC01009759F0D7014D915C91B8010E9431
:1024E0008E00C8010E9425138E0102C000E010E09A
:1024F000C801DF91CF911F910F91FF90EF90DF9076
:10250000CF90BF90AF909F908F907F906F900895E5
:102510000F931F93CF93DF93BC018230910510F48A
:1025200062E070E0E0915903F0915A03A0E0B0E05E
:1025300040E050E024C08081918186179707D0F059
:102540008617970771F482819381109729F013966B
:102550009C938E9312972CC090935A0380935903A7
:1025600027C04115510519F08417950718F4EF019C
:102570008D01AC01DF01828193819C01F9013097CB
:10258000D1F641155105F9F0CA01861B970B84302D
:10259000910580F48A819B810115110521F0F801D4
:1025A0009383828304C090935A0380935903FE015E
:1025B000329645C0FE01E80FF91F619371930297AF
:1025C000998388833CC08091570390915803892B4D
:1025D00041F4809145029091460290935803809374
:1025E000570340914702509148024115510541F46B
:1025F0004DB75EB78091430290914402481B590B3E
:10260000209157033091580324173507B0F4CA01BD
:10261000821B930B8617970780F0AB014E5F5F4FCD
:102620008417950750F0420F531F5093580340935F
:102630005703F9016193719302C0E0E0F0E0CF012C
:10264000DF91CF911F910F910895CF93DF939C015C
:10265000009709F48FC0EC0122971B821A826091C7
:10266000590370915A036115710581F4888199812C
:10267000820F931F20915703309158032817390771
:1026800039F5D0935803C093570374C0DB0140E081
:1026900050E0AC17BD0708F1BB83AA83FE0121916E
:1026A0003191E20FF31FAE17BF0779F48D919C9122
:1026B0001197280F391F2E5F3F4F398328831296B9
:1026C0008D919C9113979B838A834115510571F4D9
:1026D000D0935A03C09359034DC012968D919C918B
:1026E0001397AD01009711F0DC01D3CFDA011396F7
:1026F000DC93CE931297FA0121913191E20FF31FEF
:10270000CE17DF0769F488819981280F391F2E5F62
:102710003F4FFA01318320838A819B819383828397
:10272000E0E0F0E0DB0112968D919C911397009709
:1027300019F0BC01FD01F6CFAB014E5F5F4FDB012D
:102740008D919C91840F951F2091570330915803D0
:102750002817390779F4309729F410925A03109208
:10276000590302C0138212824250504050935803C2
:1027700040935703DF91CF9108955058BB27AA2764
:102780000ED075C166D130F06BD120F031F49F3F8F
:1027900011F41EF45BC10EF4E095E7FB51C1E92F83
:1027A00077D180F3BA17620773078407950718F08B
:1027B00071F49EF58FC10EF4E0950B2EBA2FA02D6B
:1027C0000B01B90190010C01CA01A0011124FF27DE
:1027D000591B99F0593F50F4503E68F11A16F040D9
:1027E000A22F232F342F4427585FF3CF46953795D8
:1027F0002795A795F0405395C9F77EF41F16BA0B9D
:10280000620B730B840BBAF09150A1F0FF0FBB1F4A
:10281000661F771F881FC2F70EC0BA0F621F731F93
:10282000841F48F4879577956795B795F7959E3FF0
:1028300008F0B3CF9395880F08F09927EE0F97957E
:1028400087950895D9D008F481E008950CD00FC180
:1028500007D140F0FED030F021F45F3F19F0F0C016
:10286000511139C1F3C014D198F39923C9F35523F9
:10287000B1F3951B550BBB27AA2762177307840773
:1028800038F09F5F5F4F220F331F441FAA1FA9F329
:1028900033D00E2E3AF0E0E830D091505040E6951B
:1028A000001CCAF729D0FE2F27D0660F771F881F7C
:1028B000BB1F261737074807AB07B0E809F0BB0B6B
:1028C000802DBF01FF2793585F4F2AF09E3F51058F
:1028D00068F0B6C000C15F3FECF3983EDCF386952C
:1028E00077956795B795F7959F5FC9F7880F911D05
:1028F0009695879597F90895E1E0660F771F881FF1
:10290000BB1F621773078407BA0720F0621B730BA3
:10291000840BBA0BEE1F88F7E095089504D06894F5
:10292000B111D9C00895BCD088F09F5790F0B92F4D
:102930009927B751A0F0D1F0660F771F881F991F14
:102940001AF0BA95C9F712C0B13081F0C3D0B1E026
:102950000895C0C0672F782F8827B85F39F0B93F36
:10296000CCF3869577956795B395D9F73EF4909516
:102970008095709561957F4F8F4F9F4F0895E89494
:1029800009C097FB3EF490958095709561957F4FB7
:102990008F4F9F4F9923A9F0F92F96E9BB27939565
:1029A000F695879577956795B795F111F8CFFAF475
:1029B000BB0F11F460FF1BC06F5F7F4F8F4F9F4FA6
:1029C00016C0882311F096E911C0772321F09EE804
:1029D000872F762F05C0662371F096E8862F70E06A
:1029E00060E02AF09A95660F771F881FDAF7880F44
:1029F0009695879597F90895990F0008550FAA0B9A
:102A0000E0E8FEEF16161706E807F907C0F0121601
:102A10001306E407F50798F0621B730B840B950B04
:102A200039F40A2661F0232B242B252B21F4089559
:102A30000A2609F4A140A6958FEF811D811D0895F6
:102A400097F99F6780E870E060E008959FEF80EC61
:102A5000089500240A941616170618060906089504
:102A600000240A9412161306140605060895092E6A
:102A70000394000C11F4882352F0BB0F40F4BF2BD9
:102A800011F460FF04C06F5F7F4F8F4F9F4F089519
:102A900057FD9058440F551F59F05F3F71F047950F
:102AA000880F97FB991F61F09F3F79F087950895F4
:102AB000121613061406551FF2CF4695F1DF08C013
:102AC000161617061806991FF1CF86957105610530
:102AD00008940895E894BB2766277727CB0197F9D8
:102AE00008958ADF08F48FEF08950BD0C0CFB1DFCF
:102AF00028F0B6DF18F0952309F0A2CFA7CF112454
:102B0000EACFC6DFA0F3959FD1F3950F50E0551F94
:102B1000629FF001729FBB27F00DB11D639FAA2732
:102B2000F00DB11DAA1F649F6627B00DA11D661F81
:102B3000829F2227B00DA11D621F739FB00DA11DA2
:102B4000621F839FA00D611D221F749F3327A00D5C
:102B5000611D231F849F600D211D822F762F6A2FF8
:102B600011249F5750408AF0E1F088234AF0EE0F7D
:102B7000FF1FBB1F661F771F881F91505040A9F78A
:102B80009E3F510570F05CCFA6CF5F3FECF3983EBF
:102B9000DCF3869577956795B795F795E7959F5FF1
:102BA000C1F7FE2B880F911D9695879597F908958B
:102BB00023DF880B990B0895629FD001739FF0016A
:102BC000829FE00DF11D649FE00DF11D929FF00DBD
:102BD000839FF00D749FF00D659FF00D9927729FF4
:102BE000B00DE11DF91F639FB00DE11DF91FBD017F
:102BF000CF0111240895991B79E004C0991F9617FD
:102C000008F0961B881F7A95C9F78095089597FB61
:102C1000092E07260AD077FD04D049D006D000201F
:102C20001AF4709561957F4F0895F6F79095819508
:102C30009F4F0895A1E21A2EAA1BBB1BFD010DC0D8
:102C4000AA1FBB1FEE1FFF1FA217B307E407F5075C
:102C500020F0A21BB30BE40BF50B661F771F881F38
:102C6000991F1A9469F760957095809590959B01CE
:102C7000AC01BD01CF01089597FB092E05260ED0AA
:102C800057FD04D0D7DF0AD0001C38F4509540958A
:102C9000309521953F4F4F4F5F4F0895F6F7909530
:102CA0008095709561957F4F8F4F9F4F0895AA1B18
:102CB000BB1B51E107C0AA1FBB1FA617B70710F027
:102CC000A61BB70B881F991F5A95A9F78095909559
:102CD000BC01CD010895EE0FFF1F0590F491E02D8A
:102CE000099410E0C6ECD0E004C0FE010E946D160D
:0C2CF0002296C83CD107C9F7F894FFCF2A
:102CFC00484F4D452100004F4B00484F4D494E4722
:102D0C00004C6F636174696F6E2028436F756E742D
:102D1C0073293A200050756D703A200056656E7418
:102D2C003A200041524D20416E676C653A200057A5
:102D3C005249535420416E676C653A200044454219
:102D4C0055473A20004572726F723A20004E6F2040
:102D5C004469736B004275726E65725F56003E205B
:102D6C0000757000646F776E7300646F776E00701F
:102D7C00756D70206F6E0070756D70206F666600DB
:102D8C0076656E74006C6566740063656E7465724E
:102D9C000072696768740073746F7000686F6D659A
:102DAC000073746174757300737461747300676578
:102DBC0074206469736B006C6F6164206469736B5D
:102DCC0000756E6C6F6164206469736B00706C616C
:102DDC006365206469736B006465627567206F6E50
:102DEC00006465627567206F6666006563686F20B6
:102DFC006F6E006563686F206F6666004572726F58
:102E0C00722C20556E6B6E6F776E20436F6D6D61FB
:102E1C006E643A200072656164790A006E616E001E
:102E2C00696E66006F7666002E0001002000011AA4
:102E3C00002D0080005B030000000000001F0DB59A
:0A2E4C000DB50CE60CC60C0F0D00CE
:00000001FF
