:100000000C9464000C9461090C948E090C948C007F
:100010000C948C000C948C000C948C000C948C0030
:100020000C948C000C948C000C948C000C947E0727
:100030000C948C000C948C000C948C000C948C0010
:100040000C943C080C948C000C94A20A0C94F00ABA
:100050000C948C000C948C000C948C000C948C00F0
:100060000C948C000C948C000000000024002700ED
:100070002A0000000000250028002B0000000000DE
:1000800023002600290004040404040404040202DA
:100090000202020203030303030301020408102007
:1000A0004080010204081020010204081020000012
:1000B0000007000201000003040600000000000029
:1000C0000000D1005C0CCA0011241FBECFEFD4E0A9
:1000D000DEBFCDBF12E0A0E0B1E0E6EFFAE202C081
:1000E00005900D92AA33B107D9F713E0AAE3B2E065
:1000F00001C01D92AD33B107E1F710E0C6ECD0E0CE
:1001000004C02297FE010E946A15C23CD107C9F7BC
:100110000E9495100C946E150C940000FB01DC01FC
:1001200002C001900D9241505040D8F70895FB0154
:10013000DC018D91019080190110D9F3990B08957C
:10014000FB01DC0101900D920020E1F70895813060
:100150009105B1F46F5F7F4FE1F48AE492E060E0D3
:1001600071E00E945C1081E592E00E943A0684E50D
:1001700092E00E943A0687E592E00E943A060895CE
:10018000892B39F46F5F7F4F21F48AE492E00E945B
:100190008F10089580E090E06FEF7FEF0E94A7003E
:1001A000089581E090E06FEF7FEF0E94A70008952F
:1001B0000E948408209145023091460240914702F6
:1001C00050914802621B730B840B950B60527E4466
:1001D0008040904094F010921C0210921B021092EA
:1001E0003B0210923A020E94840860934502709389
:1001F0004602809347029093480208950E94840823
:1002000020914102309142024091430250914402B8
:10021000621B730B840B950B4091220250912302B9
:1002200028EE33E0F9014E9F90014F9F300D5E9F05
:10023000300D1124442737FD4095542F6217730762
:1002400084079507D4F080913A0290913B02019681
:1002500090933B0280933A028134910524F01092EE
:100260003B0210923A020E9484086093410270930C
:1002700042028093430290934402089580911F02AA
:10028000909120020FC087E592E00E9490066FE0F7
:1002900070E080E090E00E94AA0880915A0290915C
:1002A0005B02019790935B0280935A0260915A021D
:1002B00070915B026E32710534F7089580911D02D2
:1002C00090911E021BC081E592E00E949006609111
:1002D0005A0270915B0284E592E00E9490066FE002
:1002E00070E080E090E00E94AA0880915A0290910C
:1002F0005B0290931E0280931D02019790935B0214
:1003000080935A0260915A0270915B026A317105C2
:10031000D4F60E943E0187E193E061E071E00E9423
:10032000DC0E089581E592E06AE170E00E9490069B
:1003300084E592E06AE170E00E94900687E193E034
:1003400061E071E00E94DC0E0895EF92FF920F933E
:100350001F93CF93DF93EB0120911D0230911E027A
:1003600030935B0220935A027C010027F7FC009532
:10037000102F1DC081E592E00E94900660915A0204
:1003800070915B0284E592E00E949006C801B7017B
:100390000E94AA0880915A0290915B0290931E02DB
:1003A00080931D02019690935B0280935A026091A4
:1003B0005A0270915B026C177D07E4F287E193E0CB
:1003C00061E071E00E94DC0EDF91CF911F910F91EF
:1003D000FF90EF90089584E060E00E94FA0986E0C3
:1003E00060E00E94FA0908950F931F938C0184E046
:1003F00060E00E94FA0986E061E00E94FA0910922A
:100400003B0210923A0210161106CCF00E94EB014A
:1004100080911B0290911C0220913A0230913B0284
:10042000821B930B90931C0280931B0287E193E045
:1004300061E071E00E94DC0E1F910F910895FFCFE3
:10044000CF93DF93EC0184E061E00E94FA0986E03B
:1004500060E00E94FA0906C061E070E080E090E090
:100460000E94AA0880913A0290913B028C179D0746
:100470009CF30E94EB0180911B0290911C02209141
:100480003A0230913B02820F931F90931C0280939B
:100490001B0287E193E061E071E00E94DC0EDF91D6
:1004A000CF9108950F931F938C01F89485E060E03D
:1004B0000E94FA0987E0602F0E94FA0987E193E021
:1004C00061E071E00E94DC0E10923C02012B19F0F9
:1004D00081E080933C0264EF71E080E090E00E9454
:1004E000AA0878941F910F910895F89480E090E005
:1004F0000E9452028EE061E00E94FA0968EE73E009
:1005000080E090E00E94AA088EE060E00E94FA0974
:1005100087E193E061E071E00E94DC0E64EF71E03E
:1005200080E090E00E94AA08789408950E943E011D
:1005300082E390E068E270E00E94A50168EE73E05B
:1005400080E090E00E94AA0860911D0270911E0256
:10055000615F7F4F81E592E00E94900660ED77E059
:1005600080E090E00E94AA080E947502089510920F
:100570003B0210923A020E945E0180913E02882363
:1005800079F087E193E064E071E00E94DC0E08C03E
:1005900084E060E00E94FA0986E061E00E94FA09C6
:1005A00080911B0290911C02181619068CF30E9470
:1005B000EB0187E193E061E071E00E94DC0E0895B9
:1005C0000F931F9307E113E0C8016BE071E00E94F5
:1005D000F20D60911B0270911C02C8014AE050E0CC
:1005E0000E94D30DC8016FE171E00E94F20D60918D
:1005F0003C02C80170E04AE050E00E94D30DC801FF
:1006000066E271E00E94F20D60913D02C80170E067
:100610004AE050E00E94D30DC8016DE271E00E94F3
:10062000F20D60911D0270911E02C8014AE050E077
:100630000E94D30DC80169E371E00E94F20D609140
:100640001F0270912002C8014AE050E00E94D30DC1
:10065000C80167E471E00E94F20D60913E02C8019A
:1006600070E04AE050E00E94D30D1F910F91089571
:100670002F923F924F925F926F927F928F929F92B2
:10068000AF92BF92CF92DF92EF92FF920F931F93A0
:10069000CF93DF93EB0120911D0230911E02309326
:1006A0005B0220935A02A9E62A2E312C412C512CB0
:1006B0003C01882477FC8094982C82C000D000D024
:1006C000B901882777FD8095982FEDB7FEB7218275
:1006D0003282438254822AE130E040E050E0F6E981
:1006E000EF2EF12C012D112DE4E6AE2EB12CC12CF4
:1006F000D12C0E94360F7093200260931F020F903E
:100700000F900F900F9060915A0270915B0281E5FB
:1007100092E00E94900660915A0270915B0284E51B
:1007200092E00E94900660911F027091200287E57E
:1007300092E00E949006C401B3010E94AA08809131
:100740005A0290915B0290931E0280931D0280E1F9
:100750000E944E0A892B59F5209749F162E370E017
:1007600080E090E00E94AA0880E10E944E0A892B56
:10077000F1F460915A0270915B026B5F7F4F81E5EB
:1007800092E00E94900660915A0270915B026B5F4A
:100790007F4F84E592E00E94900680915A029091EA
:1007A0005B02059690931E0280931D0211C08091FA
:1007B0005A0290915B02019690935B0280935A02D9
:1007C00020915A0230915B022B3431050CF476CF24
:1007D00087E193E061E071E00E94DC0EDF91CF9150
:1007E0001F910F91FF90EF90DF90CF90BF90AF904F
:1007F0009F908F907F906F905F904F903F902F9041
:100800000895EF92FF920F931F937C0107E113E08D
:10081000C8016FE471E00E94F20DC801B7010E94A7
:10082000220F1F910F91FF90EF9008950F931F9348
:10083000DF93CF93CDB7DEB727970FB6F894DEBF1F
:100840000FBECDBF0E94B70264EF71E080E090E080
:100850000E94AA0882E390E061E070E00E94380301
:1008600081E090E00E94520260ED77E080E090E04D
:100870000E94AA080E945E0164EF71E080E090E0AF
:100880000E94AA0880E10E944E0A019731F562E3B6
:1008900070E080E090E00E94AA0880E10E944E0A89
:1008A0000197D9F40E94160480913F029091400272
:1008B00001969093400280933F02069774F08E0158
:1008C0000F5F1F4FC80167E571E00E945C10C8010F
:1008D0000E940104C8010E948F1027960FB6F89459
:1008E000DEBF0FBECDBFCF91DF911F910F91089555
:1008F00080E10E944E0A019769F462E370E080E0B3
:1009000090E00E94AA0880E10E944E0A019711F42B
:100910000E9416048CE190E00E94200264EF71E0D6
:1009200080E090E00E94AA0808950F931F9307E1CA
:1009300013E0C8016FE571E00E94F20DC8014DECB3
:100940005CEC6CEC7DE322E030E00E94D90EC80143
:1009500068E671E00E94F20D1F910F9108951F93B8
:1009600011E00DC187E193E00E94E30B682F8093B3
:10097000490280912102882321F087E193E00E94BF
:10098000DC0C609149026D3009F0F5C080912102C4
:10099000882321F087E193E00E94E40C8AE492E04E
:1009A0006BE671E00E94900F882319F00E945E01AF
:1009B000D5C08AE492E06EE671E00E94900F882331
:1009C00039F082E390E060E070E00E943803C6C036
:1009D0008AE492E064E771E00E94900F882339F086
:1009E00082E390E06BE470E00E94A501B7C08AE466
:1009F00092E069E771E00E94900F882319F081E08E
:100A000090E00AC08AE492E061E871E00E94900FF1
:100A1000882329F080E090E00E9452029FC08AE47F
:100A200092E06AE871E00E94900F882319F00E941A
:100A3000750294C08AE492E06FE871E00E94900F22
:100A4000882329F080E190E00E94F40187C08AE4C5
:100A500092E064E971E00E94900F882329F08CE114
:100A600090E00E9420027AC08AE492E06AE971E094
:100A70000E94900F882319F00E94EB016FC08AE456
:100A800092E06FE971E00E94900F882319F00E94B4
:100A9000B70264C08AE492E064EA71E00E94900FB9
:100AA000882319F00E94E00259C08AE492E06BEAC0
:100AB00071E00E94900F882319F00E9416044EC026
:100AC0008AE492E064EB71E00E94900F882319F0B1
:100AD0000E94780443C08AE492E06EEB71E00E94C9
:100AE000900F882319F00E94960238C08AE492E0A1
:100AF00069EC71E00E94900F882319F010933E0278
:100B00002DC08AE492E062ED71E00E94900F88238C
:100B100019F010923E0222C08AE492E06CED71E07E
:100B20000E94900F882319F01093210217C08AE4C5
:100B300092E064EE71E00E94900F882319F0109209
:100B400021020CC087E193E06DEE71E00E94F20D8E
:100B500087E193E06AE472E00E94220F8AE492E067
:100B600060E071E00E94761080912102882339F0C4
:100B70000E94950404C08AE492E00E94161087E166
:100B800093E00E94B20B892B09F0ECCE1F910895DF
:100B900081E592E069E070E00E94770784E592E0E9
:100BA0006AE070E00E94770787E592E06BE070E012
:100BB0000E94770784E061E00E94BB0986E061E063
:100BC0000E94BB0985E061E00E94BB0987E061E00B
:100BD0000E94BB098EE061E00E94BB0982E060E0F8
:100BE0000E94BB0983E060E00E94BB0980E160E0F5
:100BF0000E94BB0983E061E00E94FA0980E161E0A4
:100C00000E94FA0980E06EEF70E041E050E00E943F
:100C10003E0981E068ED70E042E050E00E943E094C
:100C200087E193E040E855E260E070E00E942B0B22
:100C300087E193E066E072E00E94DC0E0E943E01D4
:100C40000E94920164EF71E080E090E00E94AA08A7
:100C500083E00E944E0A892B21F410921C0210920C
:100C60001B020E94B70280912102882311F00E948A
:100C700095040895FC0180915C028C3090F480838F
:100C80008F5F80935C02815090E0FC01EE0FFF1FAC
:100C9000E80FF91FE35AFD4F88EB9BE092838183B5
:100CA00008958FEF80830895FC0120812C30B8F5E2
:100CB0008181992787FD909548E850E0481B590BA2
:100CC000440F551F440F551F6417750784F0828128
:100CD000992787FD909548E552E0481B590B440F32
:100CE000551F440F551F641775070CF4AB01425094
:100CF0005040CA01AA2797FDA095BA2F880F991FC7
:100D0000AA1FBB1F4FB7F89430E0F901EE0FFF1F89
:100D1000E20FF31FE35AFD4F928381834FBF089583
:100D2000AF92BF92CF92DF92EF92FF920F931F93F9
:100D3000CF93DF93EC019B0182E0603278070CF0E7
:100D400048C077FF03C020E030E005C0653B710577
:100D500014F024EB30E000D000D0B901882777FDF3
:100D60008095982F2981332727FD3095E8E8AE2E0E
:100D7000B12CA21AB30AAA0CBB1CAA0CBB1CCC2413
:100D8000B7FCC094DC2CEA81FF27E7FDF09528E54D
:100D900032E02E1B3F0B220F331F220F331F44273D
:100DA00037FD4095542FEDB7FEB72183328343833F
:100DB000548320E030E040E050E004EBE02EF12CE2
:100DC000012D112D0E94360F9B010F900F900F9057
:100DD0000F90CE01B9010E945406DF91CF911F916F
:100DE0000F91FF90EF90DF90CF90BF90AF9008955C
:100DF000CF92DF92EF92FF921F93CF93DF93EC019C
:100E0000162F7A01690188818C3008F064C0862F22
:100E100061E00E94BB09888190E0FC01EE0FFF1F9A
:100E2000E80FF91FE35AFD4F1F738081807C812BEF
:100E3000808380E292E08E199F0964E070E00E9456
:100E40000415698380E699E08C199D0964E070E0DF
:100E50000E9404156A83A8818A2F6CE00E94F8140E
:100E6000682F70E0AB01440F551F460F571F440F0A
:100E7000551F440F551F20E030E0C901840F951F16
:100E8000FC01EE0FFF1FE80FF91FE35AFD4F8081B1
:100E900086FD15C02F5F3F4F2C30310571F724C000
:100EA0001092800082E08093810010928500109261
:100EB0008400B19A80916F00826080936F008A2FC6
:100EC00090E0FC01EE0FFF1FE80FF91FE35AFD4F02
:100ED0008081806480838881DF91CF911F91FF9012
:100EE000EF90DF90CF900895672BD1F2E8CF40E2EA
:100EF00052E020E639E00E94F80608951F920F9212
:100F00000FB60F9211242F933F934F935F936F93DC
:100F10007F938F939F93AF93BF93EF93FF938091B2
:100F2000810287FF05C010928500109284002BC0BB
:100F300020918102332727FD309580915C0290E05B
:100F40002817390704F580918102992787FD90952C
:100F5000FC01EE0FFF1FE80FF91FE35AFD4F8081E0
:100F600086FF11C080918102992787FD9095FC0131
:100F7000EE0FFF1FE80FF91FE35AFD4F80818F73BB
:100F800060E00E94FA09809181028F5F8093810264
:100F900020918102332727FD309580915C0290E0FB
:100FA000281739070CF04EC0809181028C300CF06C
:100FB00049C0209184003091850080918102992759
:100FC00087FD9095FC01EE0FFF1FE80FF91FE35A14
:100FD000FD4F81819281280F391F30938900209322
:100FE000880080918102992787FD9095FC01EE0F82
:100FF000FF1FE80FF91FE35AFD4F808186FF2BC0CA
:1010000080918102992787FD9095FC01EE0FFF1FCB
:10101000E80FF91FE35AFD4F80818F7361E00E9452
:10102000FA0919C080E49CE905C080918400909180
:101030008500049690938900809388008FEF8093B9
:10104000810209C0809184009091850004968054AB
:101050009C4940F3EACFFF91EF91BF91AF919F91EF
:101060008F917F916F915F914F913F912F910F9051
:101070000FBE0F901F9018951F920F920FB60F92F0
:1010800011242F933F938F939F93AF93BF9380919E
:10109000860290918702A0918802B09189023091D6
:1010A0008A020196A11DB11D232F2D5F2D3720F03F
:1010B0002D570196A11DB11D20938A0280938602AF
:1010C00090938702A0938802B09389028091820254
:1010D00090918302A0918402B09185020196A11D96
:1010E000B11D8093820290938302A0938402B093F7
:1010F0008502BF91AF919F918F913F912F910F905A
:101100000FBE0F901F9018959FB7F8942091820200
:1011100030918302409184025091850286B5A89B4C
:1011200006C08F3F21F02F5F3F4F4F4F5F4F9FBF54
:10113000542F432F322F2227280F311D411D511DBF
:1011400082E0220F331F441F551F8A95D1F7B90142
:10115000CA0108959B01AC017FB7F8948091820287
:1011600090918302A0918402B091850266B5A89BFC
:1011700005C06F3F19F00196A11DB11D7FBFBA2FA9
:10118000A92F982F8827860F911DA11DB11D62E000
:10119000880F991FAA1FBB1F6A95D1F7BC012DC0EC
:1011A000FFB7F8948091820290918302A09184020B
:1011B000B0918502E6B5A89B05C0EF3F19F00196F6
:1011C000A11DB11DFFBFBA2FA92F982F88278E0F01
:1011D000911DA11DB11DE2E0880F991FAA1FBB1F21
:1011E000EA95D1F7861B970B885E9340C8F2215091
:1011F00030404040504068517C4F21153105410539
:10120000510571F60895789484B5826084BD84B5E3
:10121000816084BD85B5826085BD85B5816085BDF1
:10122000EEE6F0E0808181608083E1E8F0E010820A
:10123000808182608083808181608083E0E8F0E04B
:10124000808181608083E1EBF0E080818460808335
:10125000E0EBF0E0808181608083EAE7F0E080816C
:1012600084608083808182608083808181608083CC
:101270008081806880831092C1000895823000F5DB
:10128000E82FF0E0EE0FFF1FE557FD4F71836083FD
:10129000882319F08130A1F408C0809169008C7F07
:1012A000842B80936900E89A089580916900440F27
:1012B000551F440F551F837F842B80936900E99A43
:1012C00008951F920F920FB60F9211242F933F9300
:1012D0004F935F936F937F938F939F93AF93BF933E
:1012E000EF93FF9380918B0290918C02892B29F0D0
:1012F000E0918B02F0918C020995FF91EF91BF91E3
:10130000AF919F918F917F916F915F914F913F919D
:101310002F910F900FBE0F901F9018951F920F9254
:101320000FB60F9211242F933F934F935F936F93B8
:101330007F938F939F93AF93BF93EF93FF9380918E
:101340008D0290918E02892B29F0E0918D02F0910F
:101350008E020995FF91EF91BF91AF919F918F916F
:101360007F916F915F914F913F912F910F900FBEA1
:101370000F901F901895CF93DF93482F50E0CA012C
:1013800086569F4FFC0134914A575F4FFA01849172
:10139000882369F190E0880F991FFC01E859FF4FFD
:1013A000A591B491FC01EE58FF4FC591D4916623ED
:1013B00051F42FB7F8948C91932F909589238C93A7
:1013C000888189230BC0623061F42FB7F8948C9127
:1013D000932F909589238C938881832B88832FBFAB
:1013E00006C09FB7F8948C91832B8C939FBFDF919D
:1013F000CF910895482F50E0CA0182559F4FFC01BC
:101400002491CA0186569F4FFC0194914A575F4F21
:10141000FA013491332309F440C0222351F12330DF
:1014200071F0243028F42130A1F0223011F514C0DD
:101430002630B1F02730C1F02430D9F404C08091B7
:1014400080008F7703C0809180008F7D8093800023
:1014500010C084B58F7702C084B58F7D84BD09C06C
:101460008091B0008F7703C08091B0008F7D809312
:10147000B000E32FF0E0EE0FFF1FEE58FF4FA591F5
:10148000B4912FB7F894662321F48C919095892319
:1014900002C08C91892B8C932FBF0895682F70E028
:1014A000CB0182559F4FFC012491CB0186569F4F63
:1014B000FC0144916A577F4FFB019491992319F4E1
:1014C00020E030E03CC0222351F1233071F0243081
:1014D00028F42130A1F0223011F514C02630B1F0EB
:1014E0002730C1F02430D9F404C0809180008F7778
:1014F00003C0809180008F7D8093800010C084B5F0
:101500008F7702C084B58F7D84BD09C08091B00003
:101510008F7703C08091B0008F7D8093B000892FBA
:1015200090E0880F991F84589F4FFC01A591B491BA
:101530008C9120E030E0842311F021E030E0C901FB
:10154000089508951F920F920FB60F9211242F93B2
:101550003F934F938F939F93EF93FF938091C0009E
:1015600082FD1DC04091C6002091CF023091D00273
:101570002F5F3F4F2F7330708091D1029091D20234
:101580002817390771F0E091CF02F091D002E157AE
:10159000FD4F40833093D0022093CF0202C0809150
:1015A000C600FF91EF919F918F914F913F912F91A5
:1015B0000F900FBE0F901F901895E0912303F091AC
:1015C0002403E05CFF4F8191919120813181821B46
:1015D000930B8F739070892B11F00E94A10A0895CC
:1015E0001F920F920FB60F9211242F933F938F9358
:1015F0009F93EF93FF9320911303309114038091F5
:101600001503909116032817390731F48091C10012
:101610008F7D8093C10014C0E0911503F0911603F3
:10162000ED52FD4F20818091150390911603019694
:101630008F73907090931603809315032093C600C8
:10164000FF91EF919F918F913F912F910F900FBE3E
:101650000F901F901895AF92BF92DF92EF92FF927A
:101660000F931F93CF93DF93EC017A018B01DD245D
:10167000403081EE580780E0680780E0780711F07D
:10168000DD24D39491E0A92EB12CEC89FD89DD20D5
:1016900069F0C50108A002C0880F991F0A94E2F7FB
:1016A000808360E079E08DE390E005C0108260E81F
:1016B00074E88EE190E0A80197010E94171521506F
:1016C000304040405040569547953795279580E1EA
:1016D0002030380720F0DD2011F0DD24D6CFE88956
:1016E000F9893083EA89FB89208319A2EE89FF8971
:1016F000408121E030E0C9010C8C02C0880F991FA5
:101700000A94E2F7482B4083EE89FF894081C901A2
:101710000D8C02C0880F991F0A94E2F7482B408372
:10172000EE89FF894081C9010E8C02C0880F991F84
:101730000A94E2F7482B4083EE89FF8980810F8C61
:1017400002C0220F331F0A94E2F72095282320833A
:10175000DF91CF911F910F91FF90EF90DF90BF909D
:10176000AF900895DC011C96ED91FC911D97E05C13
:10177000FF4F2191319180819181281B390B2F736B
:101780003070C9010895DC011C96ED91FC911D9704
:10179000E05CFF4F20813181E054F040DF01AE5B1F
:1017A000BF4F8D919C9111972817390719F42FEF8E
:1017B0003FEF07C08D919C91E80FF91F8081282F82
:1017C00030E0C9010895DC011C96ED91FC911D9754
:1017D000E05CFF4F20813181E054F040DF01AE5BDF
:1017E000BF4F8D919C9111972817390719F42FEF4E
:1017F0003FEF10C08D919C911197E80FF91F208148
:101800008D919C91119701968F73907011969C9376
:101810008E9330E0C9010895DC0191968C919197E7
:10182000882339F05496ED91FC915597808186FF7D
:10183000F9CF91961C920895CF93DF93EC01EE853A
:10184000FF85E05CFF4F20813181E054F0402F5F45
:101850003F4F2F733070DF01AE5BBF4F8D919C9176
:10186000119728173907D1F3E05CFF4F80819181F0
:10187000E054F040E80FF91F6083EE85FF85E05CDF
:10188000FF4F31832083EE89FF89208181E090E042
:101890000F8C02C0880F991F0A94E2F7282B20832F
:1018A00081E089A3EC89FD8980818064808381E067
:1018B00090E0DF91CF91089510921A0310921903CE
:1018C00088EE93E0A0E0B0E080931B0390931C03AC
:1018D000A0931D03B0931E038EE292E09093180331
:1018E000809317038FE892E090932403809323035F
:1018F00083ED92E0909326038093250385EC90E09E
:10190000909328038093270384EC90E090932A031C
:101910008093290380EC90E090932C0380932B0319
:1019200081EC90E090932E0380932D0382EC90E065
:101930009093300380932F0386EC90E090933203D2
:101940008093310384E08093330383E080933403F6
:1019500087E08093350385E08093360381E08093B0
:1019600037030895CF92DF92EF92FF920F931F9368
:10197000CF93DF937C016B018A01C0E0D0E00FC000
:10198000D6016D916D01D701ED91FC910190F0812F
:10199000E02DC7010995C80FD91F0150104001154E
:1019A000110571F7CE01DF91CF911F910F91FF903B
:1019B000EF90DF90CF900895DC01ED91FC910190C4
:1019C000F081E02D09950895EF92FF920F931F93F8
:1019D0008C01DC01ED91FC910190F081E02D6DE036
:1019E00009957C01D801ED91FC910190F081E02DE9
:1019F000C8016AE009959C012E0D3F1DC9011F9188
:101A00000F91FF90EF900895CF93DF93EC01611554
:101A1000710519F420E030E00FC0DB010D900020CB
:101A2000E9F71197A61BB70BE881F9810280F381D2
:101A3000E02DAD0109959C01C901DF91CF91089579
:101A40004F925F927F928F929F92AF92BF92CF926E
:101A5000DF92EF92FF920F931F93DF93CF93CDB757
:101A6000DEB7A1970FB6F894DEBF0FBECDBF2C0135
:101A7000742ECB01223008F42AE019A231E2C32EE1
:101A8000D12CCC0EDD1E822E9924AA24BB24672DD6
:101A9000752FA50194010E94171579018A01C801CB
:101AA000B701A50194010E94D914472D461B089443
:101AB000C108D1084A3014F4405D01C0495CF60108
:101AC0004083E114F1040105110521F07E2C5F2D06
:101AD000C801DDCFC201B6010E94040DA1960FB668
:101AE000F894DEBF0FBECDBFCF91DF911F910F9154
:101AF000FF90EF90DF90CF90BF90AF909F908F902E
:101B00007F905F904F900895DC012115310541F4DD
:101B1000ED91FC910190F081E02D642F09950895DD
:101B20000E94200D0895CF92DF92EF92FF920F93C3
:101B30001F93CF93DF93EC016A017B0121153105DF
:101B400041F4E881F9810190F081E02D642F09953D
:101B50001FC02A303105D1F477FF17C0E881F98121
:101B60000190F081E02D6DE209958C014427552705
:101B7000BA014C195D096E097F09CE012AE00E9465
:101B8000200D9801280F391F04C02AE00E94200D63
:101B90009C01C901DF91CF911F910F91FF90EF90B0
:101BA000DF90CF900895CF92DF92EF92FF920F9344
:101BB0001F936C017B019A010027F7FC0095102F01
:101BC000B801A7010E94930D8C01C6010E94E40C8C
:101BD000080F191FC8011F910F91FF90EF90DF9020
:101BE000CF9008950E94040D08957F928F929F9246
:101BF000AF92BF92CF92DF92EF92FF920F931F931B
:101C0000CF93DF934C017A018B01722ECB01BA0185
:101C1000A80197010E94D514882321F0C4016DE02A
:101C200072E021C0C0E0D0E057016801E894D7F825
:101C3000C601B5012FEF3FEF4FE75FE70E94D514D4
:101C4000882351F4C601B5012FEF3FEF4FE75FE75F
:101C50000E941F13181614F0C1E0D0E0219739F04C
:101C6000C40161E172E00E94040DEC0193C0C8015F
:101C7000B7012FEF3FEF4FE75FE40E946E14181695
:101C800054F0C801B7012FEF3FEF4FE75FEC0E9420
:101C90001F13882324F4C40165E172E0E4CFC80176
:101CA000B70120E030E040E050E00E941F1387FDC4
:101CB00003C0C0E0D0E00EC0D401ED91FC910190D2
:101CC000F081E02DC4016DE20995EC0117FB109540
:101CD00017F9109520E030E040E05FE3DD240BC011
:101CE000CA01B90120E030E040E251E40E94231330
:101CF0009B01AC01D394D71498F3C801B7010E949B
:101D0000BB125B016C010E9490137B018C01C4012A
:101D1000B801A7012AE030E00E94840DC80FD91F46
:101D2000772039F0C40169E172E00E94040DC80F08
:101D3000D91FC801B7010E94BC139B01AC01C601A9
:101D4000B5010E94BA1224C020E030E040E251E424
:101D50000E9472147B018C010E948B135B016C0149
:101D6000CC24B7FCC094DC2CC401B601A5012AE048
:101D700030E00E94930DC80FD91FC601B5010E9423
:101D8000BE139B01AC01C801B7010E94BA127A943C
:101D90007720D1F6CE01DF91CF911F910F91FF9067
:101DA000EF90DF90CF90BF90AF909F908F907F90FB
:101DB00008950E94F50D0895EF92FF920F931F93DF
:101DC0007C010E94040D8C01C7010E94E40C080FE5
:101DD000191FC8011F910F91FF90EF900895AF92C6
:101DE000BF92CF92DF92EF92FF920F931F93CF9308
:101DF000DF935C016B01EE24FF24C0E0D0E010C053
:101E0000D501ED91FC9100811181C601BE010E94B6
:101E10007F0F682FC501F8010995E80EF91E21967C
:101E2000F60184819581C817D90750F3C701DF9166
:101E3000CF911F910F91FF90EF90DF90CF90BF90C7
:101E4000AF900895EF92FF920F931F937C010E9431
:101E5000EF0E8C01C7010E94E40C9C01200F311F82
:101E6000C9011F910F91FF90EF9008952F923F921B
:101E70004F925F926F927F928F929F92AF92BF929A
:101E8000CF92DF92EF92FF920F931F93DF93CF9346
:101E9000CDB7DEB73B014C0119012A016D897E895E
:101EA0008F89988D6A197B098C099D09621A730ABA
:101EB000840A950AA40193010E94D914E218F30838
:101EC00004091509A80197010E9439152A0D3B1D27
:101ED0004C1D5D1DB901CA01CF91DF911F910F917A
:101EE000FF90EF90DF90CF90BF90AF909F908F903A
:101EF0007F906F905F904F903F902F900895FC01DE
:101F0000848195816817790748F40190F081E02D6C
:101F1000309721F0E60FF71F8081089580E0089543
:101F2000DC01FB0114968D919C911597892B31F45E
:101F300061157105A9F090E0808108C00D90BC91F9
:101F4000A02D6115710529F490E08C91882349F446
:101F500007C0CD010E9497009C0190E0232B09F45B
:101F600091E0892F08950F931F93CF93DF93EC0196
:101F70008B016F5F7F4F888199810E94A410009729
:101F800011F480E005C0998388831B830A8381E074
:101F9000DF91CF911F910F910895CF93DF93EC01C3
:101FA00088819981892B29F08A819B8186179707DF
:101FB00060F4CE010E94B30F882341F08C819D8193
:101FC000892B19F4E881F981108281E0DF91CF91AA
:101FD0000895EF92FF920F931F93CF93DF93EC013D
:101FE0007B016C817D81E114F104C1F04115510543
:101FF00099F08A01060F171FB8010E94CD0F8823A0
:1020000069F0888199812C813D81820F931FB701EE
:102010000E94A0001D830C8381E001C080E0DF915D
:10202000CF911F910F91FF90EF900895DF93CF9381
:1020300000D0CDB7DEB769831A82BE016F5F7F4FD4
:1020400041E050E00E94E90F0F900F90CF91DF9197
:102050000895CF93DF93EC0188819981009711F067
:102060000E942212198218821D821C821B821A82EF
:10207000DF91CF910895EF92FF920F931F93CF932B
:10208000DF93EC017B018A01BA010E94CD0F882306
:1020900021F4CE010E94291007C01D830C83888182
:1020A0009981B7010E94A000CE01DF91CF911F91CD
:1020B0000F91FF90EF900895CF93DF93EC01198279
:1020C00018821B821A821D821C821E826115710574
:1020D00051F0DB010D900020E9F71197A61BB70B1B
:1020E000AD010E943B10DF91CF9108950F931F9394
:1020F000182F092F6115710559F0DB010D90002093
:10210000E9F71197A61BB70BAD010E943B1002C067
:102110000E942910812F902F1F910F910895FC018B
:10212000808191810E9422120895CF93DF930E94B3
:1021300003090E94C805CDEDDAE00E94AF042097A4
:10214000E1F30E94DD0AF9CF6F927F928F929F9206
:10215000AF92BF92CF92DF92EF92FF920F931F93B5
:10216000CF93DF938C01009729F4CB010E94851156
:102170008C01BBC08EEFE82E8FEFF82EE00EF11E23
:102180004801860E971E8E149F0408F4ACC0D70138
:102190004D915C91119746175707B8F0453051059E
:1021A00008F4A3C0CA0104978617970708F49DC0D6
:1021B00042505040461B570BF401419351936D938D
:1021C0007C93CF010E94221290C05B01A41AB50A31
:1021D0003801640E751EA0913B03B0913C03CC24E2
:1021E000DD24E0E0F0E047C0A615B705A9F5CD91E4
:1021F000DC911197CE0102968A159B0568F1CE01FC
:102200008A199B09029612962C91129713963C916B
:10221000059758F0F40122833383CA19DB09D1836F
:10222000C083D7016D937C9309C04E5F5F4F4C0F05
:102230005D1FF70151834083C901FC01C114D10422
:1022400031F0D6011396FC93EE9312974EC0F093A3
:102250003C03E0933B0349C08D919C911197E81793
:10226000F90708F4FC016D0112968C9112971396F0
:102270009C919C01D901109709F0B6CF8091390348
:1022800090913A0386159705E9F4E617F707D0F41D
:1022900020912802309129022115310541F42DB7F2
:1022A0003EB78091240290912502281B390B82169B
:1022B0009306C8F490923A0380923903F701718330
:1022C000608313C0CB010E948511EC01009759F087
:1022D000D7014D915C91B8010E948E00C8010E9407
:1022E00022128E0102C000E010E0C801DF91CF9100
:1022F0001F910F91FF90EF90DF90CF90BF90AF9024
:102300009F908F907F906F9008950F931F93CF931E
:10231000DF93BC018230910510F462E070E0E0913F
:102320003B03F0913C03A0E0B0E040E050E024C06B
:102330008081918186179707D0F08617970771F4EF
:1023400082819381109729F013969C938E93129714
:102350002CC090933C0380933B0327C0411551054B
:1023600019F08417950718F4EF018D01AC01DF0116
:10237000828193819C01F9013097D1F64115510575
:10238000F9F0CA01861B970B8430910580F48A818D
:102390009B810115110521F0F8019383828304C00C
:1023A00090933C0380933B03FE01329645C0FE01AF
:1023B000E80FF91F619371930297998388833CC05A
:1023C0008091390390913A03892B41F48091260240
:1023D0009091270290933A03809339034091280209
:1023E000509129024115510541F44DB75EB78091D6
:1023F000240290912502481B590B209139033091FA
:102400003A0324173507B0F4CA01821B930B8617D1
:10241000970780F0AB014E5F5F4F8417950750F030
:10242000420F531F50933A0340933903F9016193CC
:10243000719302C0E0E0F0E0CF01DF91CF911F91F6
:102440000F910895CF93DF939C01009709F48FC0FB
:10245000EC0122971B821A8260913B0370913C032E
:102460006115710581F488819981820F931F2091F4
:10247000390330913A032817390739F5D0933A03D5
:10248000C093390374C0DB0140E050E0AC17BD07D6
:1024900008F1BB83AA83FE0121913191E20FF31F62
:1024A000AE17BF0779F48D919C911197280F391FB2
:1024B0002E5F3F4F3983288312968D919C911397FD
:1024C0009B838A834115510571F4D0933C03C093DB
:1024D0003B034DC012968D919C911397AD010097CF
:1024E00011F0DC01D3CFDA011396DC93CE9312976F
:1024F000FA0121913191E20FF31FCE17DF0769F442
:1025000088819981280F391F2E5F3F4FFA0131834F
:1025100020838A819B8193838283E0E0F0E0DB016A
:1025200012968D919C911397009719F0BC01FD01B3
:10253000F6CFAB014E5F5F4FDB018D919C91840F15
:10254000951F2091390330913A032817390779F400
:10255000309729F410923C0310923B0302C013827F
:1025600012824250504050933A0340933903DF9116
:10257000CF9108955058BB27AA270ED075C166D1B8
:1025800030F06BD120F031F49F3F11F41EF45BC1A9
:102590000EF4E095E7FB51C1E92F77D180F3BA172C
:1025A000620773078407950718F071F49EF58FC1D1
:1025B0000EF4E0950B2EBA2FA02D0B01B90190015E
:1025C0000C01CA01A0011124FF27591B99F0593FA2
:1025D00050F4503E68F11A16F040A22F232F342FEA
:1025E0004427585FF3CF469537952795A795F04038
:1025F0005395C9F77EF41F16BA0B620B730B840B4D
:10260000BAF09150A1F0FF0FBB1F661F771F881F04
:10261000C2F70EC0BA0F621F731F841F48F487955C
:1026200077956795B795F7959E3F08F0B3CF93954B
:10263000880F08F09927EE0F979587950895D9D0C0
:1026400008F481E008950CD00FC107D140F0FED00E
:1026500030F021F45F3F19F0F0C0511139C1F3C0DF
:1026600014D198F39923C9F35523B1F3951B550B56
:10267000BB27AA2762177307840738F09F5F5F4F55
:10268000220F331F441FAA1FA9F333D00E2E3AF096
:10269000E0E830D091505040E695001CCAF729D0B0
:1026A000FE2F27D0660F771F881FBB1F26173707FF
:1026B0004807AB07B0E809F0BB0B802DBF01FF272F
:1026C00093585F4F2AF09E3F510568F0B6C000C195
:1026D0005F3FECF3983EDCF3869577956795B79569
:1026E000F7959F5FC9F7880F911D9695879597F984
:1026F0000895E1E0660F771F881FBB1F62177307FD
:102700008407BA0720F0621B730B840BBA0BEE1F11
:1027100088F7E095089504D06894B111D9C0089560
:10272000BCD088F09F5790F0B92F9927B751A0F0EF
:10273000D1F0660F771F881F991F1AF0BA95C9F755
:1027400012C0B13081F0C3D0B1E00895C0C0672F8E
:10275000782F8827B85F39F0B93FCCF38695779505
:102760006795B395D9F73EF49095809570956195EE
:102770007F4F8F4F9F4F0895E89409C097FB3EF419
:1027800090958095709561957F4F8F4F9F4F9923BE
:10279000A9F0F92F96E9BB279395F695879577953C
:1027A0006795B795F111F8CFFAF4BB0F11F460FFFC
:1027B0001BC06F5F7F4F8F4F9F4F16C0882311F054
:1027C00096E911C0772321F09EE8872F762F05C068
:1027D000662371F096E8862F70E060E02AF09A9503
:1027E000660F771F881FDAF7880F9695879597F9F8
:1027F0000895990F0008550FAA0BE0E8FEEF161692
:102800001706E807F907C0F012161306E407F507E4
:1028100098F0621B730B840B950B39F40A2661F058
:10282000232B242B252B21F408950A2609F4A140FB
:10283000A6958FEF811D811D089597F99F6780E808
:1028400070E060E008959FEF80EC089500240A9402
:102850001616170618060906089500240A9412167B
:102860001306140605060895092E0394000C11F4AE
:10287000882352F0BB0F40F4BF2B11F460FF04C05B
:102880006F5F7F4F8F4F9F4F089557FD9058440FB4
:10289000551F59F05F3F71F04795880F97FB991FBF
:1028A00061F09F3F79F0879508951216130614067C
:1028B000551FF2CF4695F1DF08C016161706180609
:1028C000991FF1CF86957105610508940895E894E4
:1028D000BB2766277727CB0197F908958ADF08F48D
:1028E0008FEF08950BD0C0CFB1DF28F0B6DF18F01E
:1028F000952309F0A2CFA7CF1124EACFC6DFA0F31A
:10290000959FD1F3950F50E0551F629FF001729F84
:10291000BB27F00DB11D639FAA27F00DB11DAA1FA3
:10292000649F6627B00DA11D661F829F2227B00DF0
:10293000A11D621F739FB00DA11D621F839FA00D7B
:10294000611D221F749F3327A00D611D231F849FCB
:10295000600D211D822F762F6A2F11249F57504022
:102960008AF0E1F088234AF0EE0FFF1FBB1F661FBD
:10297000771F881F91505040A9F79E3F510570F076
:102980005CCFA6CF5F3FECF3983EDCF3869577955E
:102990006795B795F795E7959F5FC1F7FE2B880F71
:1029A000911D9695879597F9089523DF880B990BCC
:1029B0000895629FD001739FF001829FE00DF11D89
:1029C000649FE00DF11D929FF00D839FF00D749FA9
:1029D000F00D659FF00D9927729FB00DE11DF91F55
:1029E000639FB00DE11DF91FBD01CF0111240895B2
:1029F000991B79E004C0991F961708F0961B881F51
:102A00007A95C9F78095089597FB092E07260AD075
:102A100077FD04D049D006D000201AF47095619556
:102A20007F4F0895F6F7909581959F4F0895A1E205
:102A30001A2EAA1BBB1BFD010DC0AA1FBB1FEE1F38
:102A4000FF1FA217B307E407F50720F0A21BB30B83
:102A5000E40BF50B661F771F881F991F1A9469F7FF
:102A600060957095809590959B01AC01BD01CF015B
:102A7000089597FB092E05260ED057FD04D0D7DF09
:102A80000AD0001C38F450954095309521953F4F61
:102A90004F4F5F4F0895F6F790958095709561952B
:102AA0007F4F8F4F9F4F0895AA1BBB1B51E107C05B
:102AB000AA1FBB1FA617B70710F0A61BB70B881FCE
:102AC000991F5A95A9F780959095BC01CD0108955D
:102AD000EE0FFF1F0590F491E02D099410E0C6EC75
:102AE000D0E004C0FE010E946A152296C83CD107BE
:062AF000C9F7F894FFCFC6
:102AF600004F4B00484F4D494E47004C6F63617481
:102B0600696F6E2028436F756E7473293A200050E2
:102B1600756D703A200056656E743A200041524D2C
:102B260020416E676C653A20005752495354204144
:102B36006E676C653A200044454255473A20004589
:102B460072726F723A20004E6F204469736B0042B6
:102B560075726E65725F56003E2000757000646F78
:102B6600776E7300646F776E0070756D70206F6E90
:102B76000070756D70206F66660076656E74006C09
:102B86006566740072696768740073746F700068B4
:102B96006F6D650073746174757300676574206486
:102BA60069736B006C6F6164206469736B00706C91
:102BB600616365206469736B006465627567206F85
:102BC6006E006465627567206F6666006563686F90
:102BD600206F6E006563686F206F666600457272CF
:102BE6006F722C20556E6B6E6F776E20436F6D6D16
:102BF600616E643A200072656164790A006E616EE6
:102C060000696E66006F7666002E0040001A002D81
:102C16000001010080003D030000000000001C0CC4
:0A2C2600B20CB20BE30BC30B0C0C55
:00000001FF
