:100000000C9464000C9488090C94B5090C948C0031
:100010000C948C000C948C000C948C000C948C0030
:100020000C948C000C948C000C948C000C94A50700
:100030000C948C000C948C000C948C000C948C0010
:100040000C9463080C948C000C94C90A0C94170B44
:100050000C948C000C948C000C948C000C948C00F0
:100060000C948C000C948C000000000024002700ED
:100070002A0000000000250028002B0000000000DE
:1000800023002600290004040404040404040202DA
:100090000202020203030303030301020408102007
:1000A0004080010204081020010204081020000012
:1000B0000007000201000003040600000000000029
:1000C00000005601830C4F0111241FBECFEFD4E076
:1000D000DEBFCDBF12E0A0E0B1E0E4E4FBE202C08D
:1000E00005900D92A634B107D9F713E0A6E4B2E06B
:1000F00001C01D92A934B107E1F710E0C6ECD0E0D1
:1001000004C02297FE010E949115C23CD107C9F795
:100110000E94BC100C9495150C940000FB01DC01AE
:1001200002C001900D9241505040D8F70895FB0154
:10013000DC018D91019080190110D9F3990B08957C
:10014000FB01DC0101900D920020E1F7089510926F
:100150002A021092290210924702109246028091C0
:100160004A02882331F083E293E060E071E00E946C
:10017000030F08950E94AB08209151023091520262
:100180004091530250915402621B730B840B950BE8
:1001900060527E448040904064F00E94A7000E941C
:1001A000AB08609351027093520280935302909374
:1001B0005402089560914602709147026F5F7F4F2D
:1001C000709347026093460280914A02882331F07F
:1001D00083E293E04AE050E00E94FA0D80914602EB
:1001E000909147028134910524F0109247021092B9
:1001F000460208950E94AB0820914D0230914E02B4
:1002000040914F0250915002621B730B840B950B6F
:10021000409127025091280228EE33E0F9014E9FC9
:1002200090014F9F300D5E9F300D1124442737FD04
:100230004095542F621773078407950764F00E9456
:10024000DA000E94AB0860934D0270934E028093D7
:100250004F0290935002089581309105B1F46F5F81
:100260007F4FE1F486E592E066E071E00E94831042
:100270008DE592E00E94610680E692E00E946106B0
:1002800083E692E00E9461060895892B39F46F5F3E
:100290007F4F21F486E592E00E94B610089580E039
:1002A00090E06FEF7FEF0E942C01089581E090E0D5
:1002B0006FEF7FEF0E942C01089580912D029091A5
:1002C0002E020FC083E692E00E94B7066FE070E056
:1002D00080E090E00E94D1088091660290916702D0
:1002E0000197909367028093660260916602709115
:1002F00067026E32710534F7089580912B02909158
:100300002C021BC08DE592E00E94B7066091660248
:100310007091670280E692E00E94B7066FE070E09D
:1003200080E090E00E94D10880916602909167027F
:1003300090932C0280932B020197909367028093F5
:10034000660260916602709167026A317105D4F6A7
:100350000E945D0183E293E067E071E00E94030F79
:1003600008958DE592E06AE170E00E94B70680E6AC
:1003700092E06AE170E00E94B70683E293E067E0F2
:1003800071E00E94030F0895EF92FF920F931F9365
:10039000CF93DF93EB0120912B0230912C0230930D
:1003A0006702209366027C010027F7FC0095102F5E
:1003B0001DC08DE592E00E94B706609166027091C3
:1003C000670280E692E00E94B706C801B7010E946A
:1003D000D108809166029091670290932C028093DD
:1003E0002B020196909367028093660260916602E9
:1003F000709167026C177D07E4F283E293E067E097
:1004000071E00E94030FDF91CF911F910F91FF9038
:10041000EF90089584E060E00E94210A86E060E0A9
:100420000E94210A08950F931F938C0184E060E0DD
:100430000E94210A86E061E00E94210A1092470290
:100440001092460210161106CCF00E940A0280910A
:10045000290290912A022091460230914702821B84
:10046000930B90932A028093290283E293E067E042
:1004700071E00E94030F1F910F910895FFCFCF935A
:10048000DF93EC0184E061E00E94210A86E060E0F5
:100490000E94210A06C061E070E080E090E00E94C6
:1004A000D10880914602909147028C179D079CF3DA
:1004B0000E940A028091290290912A02209146020C
:1004C00030914702820F931F90932A028093290252
:1004D00083E293E067E071E00E94030FDF91CF9128
:1004E00008950F931F938C01F89485E060E00E94BB
:1004F000210A87E0602F0E94210A83E293E067E0EF
:1005000071E00E94030F10924802012B19F081E064
:100510008093480264EF71E080E090E00E94D1088F
:1005200078941F910F910895F89480E090E00E94D4
:1005300071028EE061E00E94210A68EE73E080E0C3
:1005400090E00E94D1088EE060E00E94210A83E2E0
:1005500093E067E071E00E94030F64EF71E080E0D8
:1005600090E00E94D108789408950E945D0182E392
:1005700090E068E270E00E94C40168EE73E080E001
:1005800090E00E94D10860912B0270912C02615F73
:100590007F4F8DE592E00E94B70660ED77E080E046
:1005A00090E00E94D1080E949402089510924702A0
:1005B000109246020E947D0180914A02882379F0C0
:1005C00083E293E06AE071E00E94030F08C084E0D8
:1005D00060E00E94210A86E061E00E94210A809189
:1005E000290290912A02181619068CF30E940A0219
:1005F00083E293E067E071E00E94030F08950F9398
:100600001F9303E213E0C80161E171E00E94190E3B
:100610006091290270912A02C8014AE050E00E94CC
:10062000FA0DC80165E271E00E94190E609148025E
:10063000C80170E04AE050E00E94FA0DC8016CE287
:1006400071E00E94190E60914902C80170E04AE011
:1006500050E00E94FA0DC80163E371E00E94190E98
:1006600060912B0270912C02C8014AE050E00E9478
:10067000FA0DC8016FE371E00E94190E60912D021E
:1006800070912E02C8014AE050E00E94FA0DC801A4
:100690006DE471E00E94190E60914A02C80170E099
:1006A0004AE050E00E94FA0D1F910F9108952F9299
:1006B0003F924F925F926F927F928F929F92AF92F2
:1006C000BF92CF92DF92EF92FF920F931F93CF933F
:1006D000DF93EB0120912B0230912C0230936702C3
:1006E00020936602A9E62A2E312C412C512C3C0184
:1006F000882477FC8094982C82C000D000D0B90167
:10070000882777FD8095982FEDB7FEB7218232823A
:10071000438254822AE130E040E050E0F6E9EF2ED7
:10072000F12C012D112DE4E6AE2EB12CC12CD12CD3
:100730000E945D0F70932E0260932D020F900F9018
:100740000F900F9060916602709167028DE592E0C4
:100750000E94B706609166027091670280E692E09F
:100760000E94B70660912D0270912E0283E692E0FE
:100770000E94B706C401B3010E94D10880916602AD
:100780009091670290932C0280932B0280E10E944B
:10079000750A892B59F5209749F162E370E080E0F2
:1007A00090E00E94D10880E10E94750A892BF1F443
:1007B00060916602709167026B5F7F4F8DE592E0FA
:1007C0000E94B70660916602709167026B5F7F4F6F
:1007D00080E692E00E94B7068091660290916702DF
:1007E000059690932C0280932B0211C08091660293
:1007F0009091670201969093670280936602209120
:100800006602309167022B3431050CF476CF83E217
:1008100093E067E071E00E94030FDF91CF911F9199
:100820000F91FF90EF90DF90CF90BF90AF909F908F
:100830008F907F906F905F904F903F902F90089592
:10084000EF92FF920F931F937C0103E213E0C80124
:1008500065E571E00E94190EC801B7010E94490FB9
:100860001F910F91FF90EF9008950F931F93DF93C7
:10087000CF93CDB7DEB727970FB6F894DEBF0FBE84
:10088000CDBF0E94D60264EF71E080E090E00E944C
:10089000D10882E390E061E070E00E94570381E0BC
:1008A00090E00E94710260ED77E080E090E00E94AD
:1008B000D1080E947D0164EF71E080E090E00E9429
:1008C000D10880E10E94750A019731F562E370E07A
:1008D00080E090E00E94D10880E10E94750A0197B3
:1008E000D9F40E94350480914B0290914C020196FC
:1008F00090934C0280934B02069774F08E010F5F29
:100900001F4FC8016DE571E00E948310C8010E946D
:100910002004C8010E94B61027960FB6F894DEBFD7
:100920000FBECDBFCF91DF911F910F91089580E150
:100930000E94750A019769F462E370E080E090E03C
:100940000E94D10880E10E94750A019711F40E946B
:1009500035048CE190E00E943F0264EF71E080E09A
:1009600090E00E94D10808950F931F9303E213E0D3
:10097000C80165E671E00E94190EC8014DEC5CECFF
:100980006CEC7DE322E030E00E94000FC8016EE6CF
:1009900071E00E94190E1F910F9108951F9311E0AD
:1009A00015C183E293E00E940A0C682F80935502E0
:1009B00080912F02882321F083E293E00E94030DAF
:1009C000609155026D3009F0FDC080912F0288239F
:1009D00021F083E293E00E940B0D86E592E061E74F
:1009E00071E00E94B70F882319F00E947D01DDC0DD
:1009F00086E592E064E771E00E94B70F882339F042
:100A000082E390E060E070E00E945703CEC086E58C
:100A100092E06AE771E00E94B70F882339F082E321
:100A200090E06BE470E00E94C401BFC086E592E0F4
:100A30006FE771E00E94B70F882319F081E090E022
:100A40000AC086E592E067E871E00E94B70F88234C
:100A500029F080E090E00E947102A7C086E592E054
:100A600060E971E00E94B70F882319F00E94940298
:100A70009CC086E592E065E971E00E94B70F88238B
:100A800029F080E190E00E9413028FC086E592E099
:100A90006AE971E00E94B70F882329F08CE190E0A9
:100AA0000E943F0282C086E592E060EA71E00E9407
:100AB000B70F882319F00E940A0277C086E592E0FA
:100AC00065EA71E00E94B70F882319F00E94D602F0
:100AD0006CC086E592E06AEA71E00E94B70F882355
:100AE00041F486E592E061EB71E00E94B70F882344
:100AF00019F00E94FF0259C086E592E067EB71E0B1
:100B00000E94B70F882319F00E9435044EC086E575
:100B100092E060EC71E00E94B70F882319F00E9408
:100B2000970443C086E592E06AEC71E00E94B70F3B
:100B3000882319F00E94B50238C086E592E065ED81
:100B400071E00E94B70F882319F010934A022DC05C
:100B500086E592E06EED71E00E94B70F882319F0F0
:100B600010924A0222C086E592E068EE71E00E948F
:100B7000B70F882319F010932F0217C086E592E073
:100B800060EF71E00E94B70F882319F010922F02D6
:100B90000CC083E293E069EF71E00E94190E83E2DA
:100BA00093E066E572E00E94490F86E592E066E018
:100BB00071E00E949D1080912F02882339F00E94DD
:100BC000B40404C086E592E00E943D1083E293E005
:100BD0000E94D90B892B09F0E4CE1F9108958DE571
:100BE00092E069E070E00E949E0780E692E06AE091
:100BF00070E00E949E0783E692E06BE070E00E9446
:100C00009E0784E061E00E94E20986E061E00E94C4
:100C1000E20985E061E00E94E20987E061E00E946C
:100C2000E2098EE061E00E94E20982E060E00E9459
:100C3000E20983E060E00E94E20980E160E00E9456
:100C4000E20983E061E00E94210A80E161E00E9404
:100C5000210A80E06AEF70E041E050E00E946509FF
:100C600081E06AEB70E042E050E00E94650983E2B7
:100C700093E040E855E260E070E00E94520B83E2AE
:100C800093E062E172E00E94030F0E945D010E9406
:100C9000B10164EF71E080E090E00E94D10883E050
:100CA0000E94750A892B21F410922A0210922902BF
:100CB0000E94D60280912F02882311F00E94B40472
:100CC0000895FC01809168028C3090F480838F5FDE
:100CD00080936802815090E0FC01EE0FFF1FE80F47
:100CE000F91FE759FD4F88EB9BE0928381830895BC
:100CF0008FEF80830895FC0120812C30B8F581812D
:100D0000992787FD909548E850E0481B590B440F00
:100D1000551F440F551F6417750784F0828199276A
:100D200087FD909548E552E0481B590B440F551F2D
:100D3000440F551F641775070CF4AB014250504027
:100D4000CA01AA2797FDA095BA2F880F991FAA1F3D
:100D5000BB1F4FB7F89430E0F901EE0FFF1FE20F11
:100D6000F31FE759FD4F928381834FBF0895AF92E0
:100D7000BF92CF92DF92EF92FF920F931F93CF9388
:100D8000DF93EC019B0182E0603278070CF048C0F1
:100D900077FF03C020E030E005C0653B710514F02B
:100DA00024EB30E000D000D0B901882777FD809592
:100DB000982F2981332727FD3095E8E8AE2EB12CF6
:100DC000A21AB30AAA0CBB1CAA0CBB1CCC24B7FCED
:100DD000C094DC2CEA81FF27E7FDF09528E532E09E
:100DE0002E1B3F0B220F331F220F331F442737FDCB
:100DF0004095542FEDB7FEB721833283438354834C
:100E000020E030E040E050E004EBE02EF12C012D3A
:100E1000112D0E945D0F9B010F900F900F900F906E
:100E2000CE01B9010E947B06DF91CF911F910F91F6
:100E3000FF90EF90DF90CF90BF90AF900895CF924A
:100E4000DF92EF92FF921F93CF93DF93EC01162F67
:100E50007A01690188818C3008F064C0862F61E0D6
:100E60000E94E209888190E0FC01EE0FFF1FE80F6D
:100E7000F91FE759FD4F1F738081807C812B808390
:100E800080E292E08E199F0964E070E00E942B15C9
:100E9000698380E699E08C199D0964E070E00E9406
:100EA0002B156A83A8818A2F6CE00E941F15682F7A
:100EB00070E0AB01440F551F460F571F440F551FDD
:100EC000440F551F20E030E0C901840F951FFC013D
:100ED000EE0FFF1FE80FF91FE759FD4F808186FDD8
:100EE00015C02F5F3F4F2C30310571F724C0109291
:100EF000800082E08093810010928500109284002F
:100F0000B19A80916F00826080936F008A2F90E089
:100F1000FC01EE0FFF1FE80FF91FE759FD4F80811D
:100F2000806480838881DF91CF911F91FF90EF9043
:100F3000DF90CF900895672BD1F2E8CF40E252E0E6
:100F400020E639E00E941F0708951F920F920FB606
:100F50000F9211242F933F934F935F936F937F933F
:100F60008F939F93AF93BF93EF93FF9380918D02E5
:100F700087FF05C010928500109284002BC020913D
:100F80008D02332727FD30958091680290E0281765
:100F9000390704F580918D02992787FD9095FC0112
:100FA000EE0FFF1FE80FF91FE759FD4F808186FF05
:100FB00011C080918D02992787FD9095FC01EE0F5D
:100FC000FF1FE80FF91FE759FD4F80818F7360E025
:100FD0000E94210A80918D028F5F80938D02209163
:100FE0008D02332727FD30958091680290E0281705
:100FF00039070CF04EC080918D028C300CF049C046
:10100000209184003091850080918D02992787FD81
:101010009095FC01EE0FFF1FE80FF91FE759FD4FF8
:1010200081819281280F391F309389002093880095
:1010300080918D02992787FD9095FC01EE0FFF1F8F
:10104000E80FF91FE759FD4F808186FF2BC0809183
:101050008D02992787FD9095FC01EE0FFF1FE80F89
:10106000F91FE759FD4F80818F7361E00E94210ACB
:1010700019C080E49CE905C08091840090918500AE
:10108000049690938900809388008FEF80938D025F
:1010900009C08091840090918500049680549C49F9
:1010A00040F3EACFFF91EF91BF91AF919F918F9164
:1010B0007F916F915F914F913F912F910F900FBE54
:1010C0000F901F9018951F920F920FB60F92112438
:1010D0002F933F938F939F93AF93BF9380919202EF
:1010E00090919302A0919402B09195023091960252
:1010F0000196A11DB11D232F2D5F2D3720F02D57F7
:101100000196A11DB11D20939602809392029093A7
:101110009302A0939402B093950280918E029091D5
:101120008F02A0919002B09191020196A11DB11D74
:1011300080938E0290938F02A0939002B0939102BD
:10114000BF91AF919F918F913F912F910F900FBEC3
:101150000F901F9018959FB7F89420918E023091B0
:101160008F02409190025091910286B5A89B06C0D3
:101170008F3F21F02F5F3F4F4F4F5F4F9FBF542F47
:10118000432F322F2227280F311D411D511D82E090
:10119000220F331F441F551F8A95D1F7B901CA0189
:1011A00008959B01AC017FB7F89480918E029091D5
:1011B0008F02A0919002B091910266B5A89B05C0E4
:1011C0006F3F19F00196A11DB11D7FBFBA2FA92F46
:1011D000982F8827860F911DA11DB11D62E0880FF1
:1011E000991FAA1FBB1F6A95D1F7BC012DC0FFB77D
:1011F000F89480918E0290918F02A0919002B0910C
:101200009102E6B5A89B05C0EF3F19F00196A11D1C
:10121000B11DFFBFBA2FA92F982F88278E0F911DC0
:10122000A11DB11DE2E0880F991FAA1FBB1FEA95FF
:10123000D1F7861B970B885E9340C8F2215030404F
:101240004040504068517C4F211531054105510502
:1012500071F60895789484B5826084BD84B5816008
:1012600084BD85B5826085BD85B5816085BDEEE6AE
:10127000F0E0808181608083E1E8F0E0108280818D
:1012800082608083808181608083E0E8F0E08081FB
:1012900081608083E1EBF0E0808184608083E0EB1B
:1012A000F0E0808181608083EAE7F0E08081846003
:1012B000808380818260808380818160808380815F
:1012C000806880831092C1000895823000F5E82F75
:1012D000F0E0EE0FFF1FE956FD4F71836083882316
:1012E00019F08130A1F408C0809169008C7F842BB3
:1012F00080936900E89A089580916900440F551F12
:10130000440F551F837F842B80936900E99A0895C9
:101310001F920F920FB60F9211242F933F934F936A
:101320005F936F937F938F939F93AF93BF93EF934D
:10133000FF938091970290919802892B29F0E09178
:101340009702F09198020995FF91EF91BF91AF91AB
:101350009F918F917F916F915F914F913F912F91CD
:101360000F900FBE0F901F9018951F920F920FB6FF
:101370000F9211242F933F934F935F936F937F931B
:101380008F939F93AF93BF93EF93FF9380919902B5
:1013900090919A02892B29F0E0919902F0919A029A
:1013A0000995FF91EF91BF91AF919F918F917F919F
:1013B0006F915F914F913F912F910F900FBE0F90C2
:1013C0001F901895CF93DF93482F50E0CA0186569F
:1013D0009F4FFC0134914A575F4FFA018491882353
:1013E00069F190E0880F991FFC01E859FF4FA59122
:1013F000B491FC01EE58FF4FC591D491662351F48E
:101400002FB7F8948C91932F909589238C93888192
:1014100089230BC0623061F42FB7F8948C91932F1D
:10142000909589238C938881832B88832FBF06C056
:101430009FB7F8948C91832B8C939FBFDF91CF91B2
:101440000895482F50E0CA0182559F4FFC01249116
:10145000CA0186569F4FFC0194914A575F4FFA018B
:101460003491332309F440C0222351F1233071F029
:10147000243028F42130A1F0223011F514C0263098
:10148000B1F02730C1F02430D9F404C0809180003D
:101490008F7703C0809180008F7D8093800010C083
:1014A00084B58F7702C084B58F7D84BD09C08091DB
:1014B000B0008F7703C08091B0008F7D8093B00023
:1014C000E32FF0E0EE0FFF1FEE58FF4FA591B49110
:1014D0002FB7F894662321F48C919095892302C04C
:1014E0008C91892B8C932FBF0895682F70E0CB01CE
:1014F00082559F4FFC012491CB0186569F4FFC01E2
:1015000044916A577F4FFB019491992319F420E08D
:1015100030E03CC0222351F1233071F0243028F414
:101520002130A1F0223011F514C02630B1F027305F
:10153000C1F02430D9F404C0809180008F7703C0BB
:10154000809180008F7D8093800010C084B58F775C
:1015500002C084B58F7D84BD09C08091B0008F77B3
:1015600003C08091B0008F7D8093B000892F90E000
:10157000880F991F84589F4FFC01A591B4918C91BD
:1015800020E030E0842311F021E030E0C90108952B
:1015900008951F920F920FB60F9211242F933F932D
:1015A0004F938F939F93EF93FF938091C00082FDA1
:1015B0001DC04091C6002091DB023091DC022F5FFC
:1015C0003F4F2F7330708091DD029091DE0228171B
:1015D000390771F0E091DB02F091DC02E556FD4F36
:1015E00040833093DC022093DB0202C08091C6006E
:1015F000FF91EF919F918F914F913F912F910F907C
:101600000FBE0F901F901895E0912F03F0913003BB
:10161000E05CFF4F8191919120813181821B930B7E
:101620008F739070892B11F00E94C80A08951F9241
:101630000F920FB60F9211242F933F938F939F9386
:10164000EF93FF9320911F0330912003809121039A
:10165000909122032817390731F48091C1008F7DC2
:101660008093C10014C0E0912103F0912203E15264
:10167000FD4F2081809121039091220301968F7369
:10168000907090932203809321032093C600FF91D2
:10169000EF919F918F913F912F910F900FBE0F90DF
:1016A0001F901895AF92BF92DF92EF92FF920F9327
:1016B0001F93CF93DF93EC017A018B01DD2440303F
:1016C00081EE580780E0680780E0780711F0DD249C
:1016D000D39491E0A92EB12CEC89FD89DD2069F02D
:1016E000C50108A002C0880F991F0A94E2F7808301
:1016F00060E079E08DE390E005C0108260E874E876
:101700008EE190E0A80197010E943E1521503040E3
:1017100040405040569547953795279580E12030B9
:10172000380720F0DD2011F0DD24D6CFE889F989D3
:101730003083EA89FB89208319A2EE89FF894081E1
:1017400021E030E0C9010C8C02C0880F991F0A9477
:10175000E2F7482B4083EE89FF894081C9010D8C57
:1017600002C0880F991F0A94E2F7482B4083EE8944
:10177000FF894081C9010E8C02C0880F991F0A940D
:10178000E2F7482B4083EE89FF8980810F8C02C0ED
:10179000220F331F0A94E2F7209528232083DF913C
:1017A000CF911F910F91FF90EF90DF90BF90AF907E
:1017B0000895DC011C96ED91FC911D97E05CFF4FB4
:1017C0002191319180819181281B390B2F733070C9
:1017D000C9010895DC011C96ED91FC911D97E05C18
:1017E000FF4F20813181E054F040DF01AE5BBF4FFD
:1017F0008D919C9111972817390719F42FEF3FEF1E
:1018000007C08D919C91E80FF91F8081282F30E04F
:10181000C9010895DC011C96ED91FC911D97E05CD7
:10182000FF4F20813181E054F040DF01AE5BBF4FBC
:101830008D919C9111972817390719F42FEF3FEFDD
:1018400010C08D919C911197E80FF91F20818D9107
:101850009C91119701968F73907011969C938E9323
:1018600030E0C9010895DC0191968C91919788230D
:1018700039F05496ED91FC915597808186FFF9CF10
:1018800091961C920895CF93DF93EC01EE85FF852E
:10189000E05CFF4F20813181E054F0402F5F3F4FEB
:1018A0002F733070DF01AE5BBF4F8D919C9111970C
:1018B00028173907D1F3E05CFF4F80819181E05414
:1018C000F040E80FF91F6083EE85FF85E05CFF4F75
:1018D00031832083EE89FF89208181E090E00F8CA5
:1018E00002C0880F991F0A94E2F7282B208381E019
:1018F00089A3EC89FD8980818064808381E090E008
:10190000DF91CF910895109226031092250388EE5F
:1019100093E0A0E0B0E08093270390932803A09386
:101920002903B0932A038AE392E0909324038093DF
:1019300023038BE992E09093300380932F038FED84
:1019400092E0909332038093310385EC90E0909382
:1019500034038093330384EC90E0909336038093B8
:10196000350380EC90E0909338038093370381EC4B
:1019700090E090933A038093390382EC90E0909347
:101980003C0380933B0386EC90E090933E0380936E
:101990003D0384E080933F0383E08093400387E02E
:1019A0008093410385E08093420381E08093430369
:1019B0000895CF92DF92EF92FF920F931F93CF93F0
:1019C000DF937C016B018A01C0E0D0E00FC0D6013B
:1019D0006D916D01D701ED91FC910190F081E02DA9
:1019E000C7010995C80FD91F0150104001151105F5
:1019F00071F7CE01DF91CF911F910F91FF90EF9082
:101A0000DF90CF900895DC01ED91FC910190F08181
:101A1000E02D09950895EF92FF920F931F938C018B
:101A2000DC01ED91FC910190F081E02D6DE00995D4
:101A30007C01D801ED91FC910190F081E02DC8016D
:101A40006AE009959C012E0D3F1DC9011F910F9160
:101A5000FF90EF900895CF93DF93EC01611571052E
:101A600019F420E030E00FC0DB010D900020E9F711
:101A70001197A61BB70BE881F9810280F381E02D55
:101A8000AD0109959C01C901DF91CF9108954F9255
:101A90005F927F928F929F92AF92BF92CF92DF928E
:101AA000EF92FF920F931F93DF93CF93CDB7DEB7E3
:101AB000A1970FB6F894DEBF0FBECDBF2C01742ED8
:101AC000CB01223008F42AE019A231E2C32ED12C36
:101AD000CC0EDD1E822E9924AA24BB24672D752FDF
:101AE000A50194010E943E1579018A01C801B70140
:101AF000A50194010E940015472D461B0894C108BA
:101B0000D1084A3014F4405D01C0495CF6014083BD
:101B1000E114F1040105110521F07E2C5F2DC801AF
:101B2000DDCFC201B6010E942B0DA1960FB6F8942D
:101B3000DEBF0FBECDBFCF91DF911F910F91FF9000
:101B4000EF90DF90CF90BF90AF909F908F907F905D
:101B50005F904F900895DC012115310541F4ED911E
:101B6000FC910190F081E02D642F099508950E9469
:101B7000470D0895CF92DF92EF92FF920F931F933C
:101B8000CF93DF93EC016A017B012115310541F40C
:101B9000E881F9810190F081E02D642F09951FC043
:101BA0002A303105D1F477FF17C0E881F98101901F
:101BB000F081E02D6DE209958C0144275527BA018B
:101BC0004C195D096E097F09CE012AE00E94470D7C
:101BD0009801280F391F04C02AE00E94470D9C017C
:101BE000C901DF91CF911F910F91FF90EF90DF908E
:101BF000CF900895CF92DF92EF92FF920F931F93B1
:101C00006C017B019A010027F7FC0095102FB801A9
:101C1000A7010E94BA0D8C01C6010E940B0D080F8E
:101C2000191FC8011F910F91FF90EF90DF90CF9087
:101C300008950E942B0D08957F928F929F92AF92EC
:101C4000BF92CF92DF92EF92FF920F931F93CF93A9
:101C5000DF934C017A018B01722ECB01BA01A801EE
:101C600097010E94FC14882321F0C40169E172E00D
:101C700021C0C0E0D0E057016801E894D7F8C60160
:101C8000B5012FEF3FEF4FE75FE70E94FC14882379
:101C900051F4C601B5012FEF3FEF4FE75FE70E9418
:101CA0004613181614F0C1E0D0E0219739F0C401B2
:101CB0006DE172E00E942B0DEC0193C0C801B701E9
:101CC0002FEF3FEF4FE75FE40E949514181654F092
:101CD000C801B7012FEF3FEF4FE75FEC0E944613BB
:101CE000882324F4C40161E272E0E4CFC801B701A3
:101CF00020E030E040E050E00E94461387FD03C042
:101D0000C0E0D0E00EC0D401ED91FC910190F081D3
:101D1000E02DC4016DE20995EC0117FB109517F950
:101D2000109520E030E040E05FE3DD240BC0CA0105
:101D3000B90120E030E040E251E40E944A139B01E7
:101D4000AC01D394D71498F3C801B7010E94E212F2
:101D50005B016C010E94B7137B018C01C401B801C7
:101D6000A7012AE030E00E94AB0DC80FD91F7720F1
:101D700039F0C40165E272E00E942B0DC80FD91F33
:101D8000C801B7010E94E3139B01AC01C601B50174
:101D90000E94E11224C020E030E040E251E40E94C1
:101DA00099147B018C010E94B2135B016C01CC245D
:101DB000B7FCC094DC2CC401B601A5012AE030E0D8
:101DC0000E94BA0DC80FD91FC601B5010E94E513C4
:101DD0009B01AC01C801B7010E94E1127A947720FF
:101DE000D1F6CE01DF91CF911F910F91FF90EF902F
:101DF000DF90CF90BF90AF909F908F907F9008958D
:101E00000E941C0E0895EF92FF920F931F937C0186
:101E10000E942B0D8C01C7010E940B0D080F191F8A
:101E2000C8011F910F91FF90EF900895AF92BF925C
:101E3000CF92DF92EF92FF920F931F93CF93DF9396
:101E40005C016B01EE24FF24C0E0D0E010C0D5019E
:101E5000ED91FC9100811181C601BE010E94A60F87
:101E6000682FC501F8010995E80EF91E2196F601C3
:101E700084819581C817D90750F3C701DF91CF91AD
:101E80001F910F91FF90EF90DF90CF90BF90AF9098
:101E90000895EF92FF920F931F937C010E94160FFB
:101EA0008C01C7010E940B0D9C01200F311FC9013D
:101EB0001F910F91FF90EF9008952F923F924F92B4
:101EC0005F926F927F928F929F92AF92BF92CF92CA
:101ED000DF92EF92FF920F931F93DF93CF93CDB7D3
:101EE000DEB73B014C0119012A016D897E898F897A
:101EF000988D6A197B098C099D09621A730A840AF4
:101F0000950AA40193010E940015E218F308040940
:101F10001509A80197010E9460152A0D3B1D4C1D53
:101F20005D1DB901CA01CF91DF911F910F91FF9003
:101F3000EF90DF90CF90BF90AF909F908F907F9069
:101F40006F905F904F903F902F900895FC01848197
:101F500095816817790748F40190F081E02D30975A
:101F600021F0E60FF71F8081089580E00895DC01DD
:101F7000FB0114968D919C911597892B31F4611575
:101F80007105A9F090E0808108C00D90BC91A02D52
:101F90006115710529F490E08C91882349F407C0FC
:101FA000CD010E9497009C0190E0232B09F491E061
:101FB000892F08950F931F93CF93DF93EC018B012B
:101FC0006F5F7F4F888199810E94CB10009711F439
:101FD00080E005C0998388831B830A8381E0DF91B9
:101FE000CF911F910F910895CF93DF93EC018881DA
:101FF0009981892B29F08A819B818617970760F444
:10200000CE010E94DA0F882341F08C819D81892BBB
:1020100019F4E881F981108281E0DF91CF91089570
:10202000EF92FF920F931F93CF93DF93EC017B010D
:102030006C817D81E114F104C1F04115510599F0E5
:102040008A01060F171FB8010E94F40F882369F058
:10205000888199812C813D81820F931FB7010E9455
:10206000A0001D830C8381E001C080E0DF91CF914F
:102070001F910F91FF90EF900895DF93CF9300D0C1
:10208000CDB7DEB769831A82BE016F5F7F4F41E033
:1020900050E00E9410100F900F90CF91DF910895A3
:1020A000CF93DF93EC0188819981009711F00E9412
:1020B0004912198218821D821C821B821A82DF91AA
:1020C000CF910895EF92FF920F931F93CF93DF93D9
:1020D000EC017B018A01BA010E94F40F882321F4EC
:1020E000CE010E94501007C01D830C838881998106
:1020F000B7010E94A000CE01DF91CF911F910F91F7
:10210000FF90EF900895CF93DF93EC01198218822E
:102110001B821A821D821C821E826115710551F07C
:10212000DB010D900020E9F71197A61BB70BAD015D
:102130000E946210DF91CF9108950F931F93182F83
:10214000092F6115710559F0DB010D900020E9F7A9
:102150001197A61BB70BAD010E94621002C00E942E
:102160005010812F902F1F910F910895FC018081B5
:1021700091810E9449120895CF93DF930E942A090A
:102180000E94EF05C4E0DBE00E94CE042097E1F35B
:102190000E94040BF9CF6F927F928F929F92AF9221
:1021A000BF92CF92DF92EF92FF920F931F93CF9344
:1021B000DF938C01009729F4CB010E94AC118C01B4
:1021C000BBC08EEFE82E8FEFF82EE00EF11E480117
:1021D000860E971E8E149F0408F4ACC0D7014D9153
:1021E0005C91119746175707B8F04530510508F430
:1021F000A3C0CA0104978617970708F49DC04250F0
:102200005040461B570BF401419351936D937C93BF
:10221000CF010E94491290C05B01A41AB50A38018F
:10222000640E751EA0914703B0914803CC24DD24B1
:10223000E0E0F0E047C0A615B705A9F5CD91DC9127
:102240001197CE0102968A159B0568F1CE018A1975
:102250009B09029612962C91129713963C91059722
:1022600058F0F40122833383CA19DB09D183C08378
:10227000D7016D937C9309C04E5F5F4F4C0F5D1F7C
:10228000F70151834083C901FC01C114D10431F02D
:10229000D6011396FC93EE9312974EC0F093480329
:1022A000E093470349C08D919C911197E817F90776
:1022B00008F4FC016D0112968C91129713969C9173
:1022C0009C01D901109709F0B6CF809145039091F8
:1022D000460386159705E9F4E617F707D0F4209131
:1022E0003402309135022115310541F42DB73EB746
:1022F0008091300290913102281B390B821693068F
:10230000C8F49092460380924503F701718360837D
:1023100013C0CB010E94AC11EC01009759F0D7011A
:102320004D915C91B8010E948E00C8010E94491233
:102330008E0102C000E010E0C801DF91CF911F9133
:102340000F91FF90EF90DF90CF90BF90AF909F9054
:102350008F907F906F9008950F931F93CF93DF938B
:10236000BC018230910510F462E070E0E091470317
:10237000F0914803A0E0B0E040E050E024C080814C
:10238000918186179707D0F08617970771F482819D
:102390009381109729F013969C938E9312972CC0DB
:1023A000909348038093470327C04115510519F0C6
:1023B0008417950718F4EF018D01AC01DF018281CC
:1023C00093819C01F9013097D1F641155105F9F03F
:1023D000CA01861B970B8430910580F48A819B810A
:1023E0000115110521F0F8019383828304C09093B5
:1023F000480380934703FE01329645C0FE01E80F73
:10240000F91F619371930297998388833CC08091EF
:10241000450390914603892B41F4809132029091BB
:1024200033029093460380934503409134025091C8
:1024300035024115510541F44DB75EB78091300228
:1024400090913102481B590B20914503309146036E
:1024500024173507B0F4CA01821B930B8617970720
:1024600080F0AB014E5F5F4F8417950750F0420F2D
:10247000531F5093460340934503F90161937193B1
:1024800002C0E0E0F0E0CF01DF91CF911F910F910A
:102490000895CF93DF939C01009709F48FC0EC015E
:1024A00022971B821A82609147037091480361153D
:1024B000710581F488819981820F931F20914503D2
:1024C000309146032817390739F5D0934603C09356
:1024D000450374C0DB0140E050E0AC17BD0708F1D4
:1024E000BB83AA83FE0121913191E20FF31FAE1746
:1024F000BF0779F48D919C911197280F391F2E5F9A
:102500003F4F3983288312968D919C9113979B831B
:102510008A834115510571F4D0934803C093470352
:102520004DC012968D919C911397AD01009711F0BB
:10253000DC01D3CFDA011396DC93CE931297FA0124
:1025400021913191E20FF31FCE17DF0769F48881E3
:102550009981280F391F2E5F3F4FFA013183208365
:102560008A819B8193838283E0E0F0E0DB01129615
:102570008D919C911397009719F0BC01FD01F6CF46
:10258000AB014E5F5F4FDB018D919C91840F951FD6
:1025900020914503309146032817390779F4309785
:1025A00029F4109248031092470302C0138212824A
:1025B000425050405093460340934503DF91CF91E2
:1025C00008955058BB27AA270ED075C166D130F0A8
:1025D0006BD120F031F49F3F11F41EF45BC10EF477
:1025E000E095E7FB51C1E92F77D180F3BA17620775
:1025F00073078407950718F071F49EF58FC10EF4E8
:10260000E0950B2EBA2FA02D0B01B90190010C0102
:10261000CA01A0011124FF27591B99F0593F50F41A
:10262000503E68F11A16F040A22F232F342F442772
:10263000585FF3CF469537952795A795F04053956A
:10264000C9F77EF41F16BA0B620B730B840BBAF03A
:102650009150A1F0FF0FBB1F661F771F881FC2F7A5
:102660000EC0BA0F621F731F841F48F487957795B9
:102670006795B795F7959E3F08F0B3CF9395880F70
:1026800008F09927EE0F979587950895D9D008F40B
:1026900081E008950CD00FC107D140F0FED030F09A
:1026A00021F45F3F19F0F0C0511139C1F3C014D1CA
:1026B00098F39923C9F35523B1F3951B550BBB2709
:1026C000AA2762177307840738F09F5F5F4F220FB6
:1026D000331F441FAA1FA9F333D00E2E3AF0E0E8AF
:1026E00030D091505040E695001CCAF729D0FE2FFB
:1026F00027D0660F771F881FBB1F2617370748078D
:10270000AB07B0E809F0BB0B802DBF01FF27935842
:102710005F4F2AF09E3F510568F0B6C000C15F3F91
:10272000ECF3983EDCF3869577956795B795F7952A
:102730009F5FC9F7880F911D9695879597F9089522
:10274000E1E0660F771F881FBB1F621773078407BE
:10275000BA0720F0621B730B840BBA0BEE1F88F7CD
:10276000E095089504D06894B111D9C00895BCD003
:1027700088F09F5790F0B92F9927B751A0F0D1F06A
:10278000660F771F881F991F1AF0BA95C9F712C0F4
:10279000B13081F0C3D0B1E00895C0C0672F782F69
:1027A0008827B85F39F0B93FCCF386957795679560
:1027B000B395D9F73EF490958095709561957F4FCC
:1027C0008F4F9F4F0895E89409C097FB3EF4909572
:1027D0008095709561957F4F8F4F9F4F9923A9F0FA
:1027E000F92F96E9BB279395F69587957795679589
:1027F000B795F111F8CFFAF4BB0F11F460FF1BC0CD
:102800006F5F7F4F8F4F9F4F16C0882311F096E95F
:1028100011C0772321F09EE8872F762F05C066230D
:1028200071F096E8862F70E060E02AF09A95660FC6
:10283000771F881FDAF7880F9695879597F908957F
:10284000990F0008550FAA0BE0E8FEEF16161706C1
:10285000E807F907C0F012161306E407F50798F029
:10286000621B730B840B950B39F40A2661F0232B42
:10287000242B252B21F408950A2609F4A140A695BE
:102880008FEF811D811D089597F99F6780E870E0A3
:1028900060E008959FEF80EC089500240A941616D6
:1028A000170618060906089500240A94121613063E
:1028B000140605060895092E0394000C11F48823CC
:1028C00052F0BB0F40F4BF2B11F460FF04C06F5FE8
:1028D0007F4F8F4F9F4F089557FD9058440F551FBE
:1028E00059F05F3F71F04795880F97FB991F61F092
:1028F0009F3F79F087950895121613061406551F09
:10290000F2CF4695F1DF08C0161617061806991F74
:10291000F1CF86957105610508940895E894BB2769
:1029200066277727CB0197F908958ADF08F48FEFA0
:1029300008950BD0C0CFB1DF28F0B6DF18F0952393
:1029400009F0A2CFA7CF1124EACFC6DFA0F3959F4D
:10295000D1F3950F50E0551F629FF001729FBB2786
:10296000F00DB11D639FAA27F00DB11DAA1F649F32
:102970006627B00DA11D661F829F2227B00DA11DE5
:10298000621F739FB00DA11D621F839FA00D611D6B
:10299000221F749F3327A00D611D231F849F600D8C
:1029A000211D822F762F6A2F11249F5750408AF0C5
:1029B000E1F088234AF0EE0FFF1FBB1F661F771F51
:1029C000881F91505040A9F79E3F510570F05CCF91
:1029D000A6CF5F3FECF3983EDCF38695779567953D
:1029E000B795F795E7959F5FC1F7FE2B880F911D6F
:1029F0009695879597F9089523DF880B990B08958D
:102A0000629FD001739FF001829FE00DF11D649FD2
:102A1000E00DF11D929FF00D839FF00D749FF00D5E
:102A2000659FF00D9927729FB00DE11DF91F639FFF
:102A3000B00DE11DF91FBD01CF0111240895991BAF
:102A400079E004C0991F961708F0961B881F7A95A5
:102A5000C9F78095089597FB092E07260AD077FDC0
:102A600004D049D006D000201AF4709561957F4FAC
:102A70000895F6F7909581959F4F0895A1E21A2E3B
:102A8000AA1BBB1BFD010DC0AA1FBB1FEE1FFF1F12
:102A9000A217B307E407F50720F0A21BB30BE40B62
:102AA000F50B661F771F881F991F1A9469F76095A9
:102AB0007095809590959B01AC01BD01CF01089563
:102AC00097FB092E05260ED057FD04D0D7DF0AD07C
:102AD000001C38F450954095309521953F4F4F4F4D
:102AE0005F4F0895F6F790958095709561957F4FAB
:102AF0008F4F9F4F0895AA1BBB1B51E107C0AA1F10
:102B0000BB1FA617B70710F0A61BB70B881F991F8E
:102B10005A95A9F780959095BC01CD010895EE0FC7
:102B2000FF1F0590F491E02D099410E0C6ECD0E071
:102B300004C0FE010E9491152296C83CD107C9F736
:042B4000F894FFCF37
:102B4400484F4D452100004F4B00484F4D494E47DB
:102B5400004C6F636174696F6E2028436F756E74E7
:102B640073293A200050756D703A200056656E74D2
:102B74003A200041524D20416E676C653A2000575F
:102B84005249535420416E676C653A2000444542D3
:102B940055473A20004572726F723A20004E6F20FA
:102BA4004469736B004275726E65725F56003E2015
:102BB40000757000646F776E7300646F776E0070D9
:102BC400756D70206F6E0070756D70206F66660095
:102BD40076656E74006C656674007269676874006B
:102BE40073746F7000686F6D6500737461747573CE
:102BF40000737461747300676574206469736B0097
:102C04006C6F6164206469736B00706C6163652030
:102C14006469736B006465627567206F6E00646538
:102C2400627567206F6666006563686F206F6E006B
:102C34006563686F206F6666004572726F722C2040
:102C4400556E6B6E6F776E20436F6D6D616E643A77
:102C5400200072656164790A006E616E00696E66B7
:102C6400006F7666002E00010040001A002D00015E
:102C740080004903000000000000430CD90CD90B6C
:062C84000A0CEA0B330C00
:00000001FF
